:100000006FC000008AC0000088C0000086C00000E9
:1000100084C0000082C0000080C000007EC00000DC
:100020007CC000007AC0000078C0000076C00000EC
:1000300074C0000072C000000C94CA0D6EC00000B5
:100040006CC000006AC0000068C0000066C000000C
:1000500064C0000062C0000060C000005EC000001C
:100060005CC000005AC00000C500C500CC00C5003F
:10007000CC00CC00CC00CC00C500C500CC00C50035
:10008000CC00CC00CC00CC00CC00CC00CC00CC0010
:10009000CC00CC00CC00CC00C500C500CC00C50015
:1000A000CC00CC00CC00CC00CC00CC00CC00CC00F0
:1000B000CC00CC00CC00CC00CC00CC00CC00CC00E0
:1000C000CC00CC00CC00CC00CC00CC00CC00CC00D0
:1000D000CC00CC00CC00CC00C500C500CC00C500D5
:1000E00011241FBECFEFD8E0DEBFCDBF11E0A0E0EE
:1000F000B1E0E6EDF1E202C005900D92A833B10740
:10010000D9F722E0A8E3B1E001C01D92AB33B207FA
:10011000E1F70E94980D0C94E91072CF10923A0109
:1001200010923901089585B1887F85B984B1887F9F
:1001300084B984B1886784B985B1886785B9089521
:1001400085B1877885B984B1877884B984B18760AF
:1001500084B985B1876085B9089583B187700895A2
:1001600083B188770895CF93DEDFF7DFC82FE8DF0C
:10017000F7DF8C2B482F50E0FA013997EC33F1056B
:1001800058F4EC5CFF4F0C94CA1090913801891719
:1001900061F080933A0109C080913801882321F0F1
:1001A0008093390180E001C080E020913A01909174
:1001B0003901291302C010923A0180933801CF917E
:1001C0000895CF93DF9363E08BE391E0C2D09091E9
:1001D0003C01892B80933C0120913B012130E9F0C7
:1001E00018F0223099F149C0CDE3D1E08EE3888345
:1001F00085E0E1E0F1E0AEE3B1E001900D928A9597
:10020000E1F780E2898B8DE0E6E0F1E0AFE4B1E078
:1002100001900D928A95E1F730C0CDE3D1E080E204
:10022000888385E0E1E0F1E0AEE3B1E001900D927A
:100230008A95E1F78EE3898B8DE0E6E0F1E0AFE4AB
:10024000B1E001900D928A95E1F717C08EE380939B
:100250003D0187E0E3E1F1E0AEE3B1E001900D9212
:100260008A95E1F780E007C0E82FF0E0E35CFE4FFD
:1002700090E2918B8F5F8031B8F380913A018231A7
:1002800059F4213031F483E891E090936401809334
:10029000630181E080930001DF91CF910895CF93B6
:1002A000DF93CDB7DEB72E970FB6F894DEBF0FBE43
:1002B000CDBFCE0101960E94870B892BD9F0898191
:1002C0009A818230910569F08330910531F0019770
:1002D00061F485B1816085B90BC085B1816085B954
:1002E00007C085B1816085B903C085B1816085B9DA
:1002F0000E947F0B2E960FB6F894DEBF0FBECDBFC7
:10030000DF91CF91089580E1EAE1F1E0ADE3B1E062
:1003100001900D928A95E1F78EE0EAE2F1E0AEE419
:10032000B1E001900D928A95E1F780910001811171
:100330000E94C40AB4DF80913A01813449F481EE0D
:1003400090E0909364018093630181E080930001C9
:100350000895FC0190913A019A3019F0923261F0BF
:100360001BC08081811104C06150608381E00895C9
:100370008150808381E008958081282F30E070E0F3
:10038000615071092617370719F4108281E008952A
:100390008F5F808381E0089580E0089580913C0123
:1003A000882391F00E941B0D0E94300D8DE391E097
:1003B0000E94450D61E080E00E94130D8EE491E003
:1003C0000E94450D10923C0108951092B9008CE5F1
:1003D0008093B800089594EA9093BC009091BC007B
:1003E0009923E4F79091B900987F983011F09031FB
:1003F00091F48093BB0084E88093BC008091BC00A2
:100400008823E4F78091B900887F883131F0803407
:1004100031F480E0089581E0089580E0089581E05E
:10042000089584E98093BC008091BC0084FDFCCFDA
:1004300008958093BB0084E88093BC008091BC0049
:100440008823E4F78091B900887F883211F081E039
:10045000089580E0089584E88093BC008091BC00FA
:100460008823E4F78091BB00089516BC0895EEE65A
:10047000F0E0108281E080935F0186E087BD82E03A
:1004800084BD93E095BD808308958F929F92AF9233
:10049000BF92CF92DF92EF92FF92CF93DF93EC0166
:1004A00080E090E00E94A60F4B015C01BE0180E05D
:1004B00090E00E94A60F6B017C012DEC3CEC4CE41B
:1004C0005FE30E9458109B01AC01C501B4010E947A
:1004D000090F88239CF02DEC3CEC4CE45FE3C50154
:1004E000B4010E9458109B01AC01C701B6010E94E3
:1004F000090F882334F482E090E005C080E090E0AA
:1005000002C081E090E0DF91CF91FF90EF90DF900B
:10051000CF90BF90AF909F908F900895AF92BF9271
:10052000CF92DF92EF92FF920F931F93CF93DF93BF
:10053000FC01A484B584F6E0AF16B1040CF449C004
:10054000EC0101E010E00F2EF5ECCF2EFDE9DF2EDF
:10055000FCE1EF2EF1E8FF2EF02D25C08A859B856A
:10056000F8013296EE0FFF1FE80FF91F60817181CD
:10057000F801EE0FFF1FE80FF91F8081918185DFE1
:10058000FC01A701960163E971E080E091E00E941F
:10059000BB106F01FF0FEE08FF08C626D726E8261E
:1005A000F9260F5F1F4FC80102968A159B05B4F20A
:1005B000CC82DD82EE82FF8280E290E0998788879C
:1005C0008FEF9FEF9983888361E070E080E090E097
:1005D00003C060E070E0CB01DF91CF911F910F91DC
:1005E000FF90EF90DF90CF90BF90AF900895CF92A3
:1005F000DF92EF92FF92CF93DF93EC01072E000C76
:10060000880B990B0E94A80F6B017C0120E030E061
:1006100040E45FE30E94581020E030E048E452E4F8
:100620000E940D0F0E94750FC617D707E4F020E057
:1006300030E040EA5FE3C701B6010E94581020E0B5
:1006400030E048E452E40E940D0F20E030E040E842
:100650005FE30E94A50E0E94750F6C177D0734F4AE
:1006600080E090E005C080E090E002C081E090E092
:10067000DF91CF91FF90EF90DF90CF900895AF92F0
:10068000BF92CF92DF92EF92FF920F931F93CF937F
:10069000DF93DB01ED91FC91EC01AC85BD85EA17A0
:1006A000FB070CF041C0AA85BB85CF01880F991FBD
:1006B000A80FB91FAD90BC9081E0E0FF80E0790108
:1006C0008A01EB01C82ED12CB901C50190DF892B1D
:1006D00099F4B701660F771FC50189DF892B79F47B
:1006E000B701660F771F6E0D7F1DC50180DF892B57
:1006F000F1F023E030E005C021E030E002C022E06C
:1007000030E0F80180819181019691838083821786
:10071000930784F0118210828881998101969983D0
:1007200088838C2D9D2D08C080E090E005C08FEF60
:100730009FEF02C08C2D9D2DDF91CF911F910F91C6
:10074000FF90EF90DF90CF90BF90AF9008958F9281
:100750009F92AF92BF92CF92DF92EF92FF920F9350
:100760001F93CF93DF9300D000D0CDB7DEB721E049
:1007700030E03A8329831C821B8220913102309120
:1007800032022D30310508F474C08C0129E733E0C2
:10079000AE014D5F5F4FBE016F5F7F4F70DF01970E
:1007A00009F06BC029E733E0AE014D5F5F4FBE013A
:1007B0006F5F7F4FC80163DF892B09F062C029E7B3
:1007C00033E0AE014D5F5F4FBE016F5F7F4FC801E9
:1007D00056DF019709F059C0C12CD12C812C912CE6
:1007E00054012EC029E733E0AE014D5F5F4FBE01DB
:1007F0006F5F7F4FC80143DF7C0129E733E0AE0123
:100800004D5F5F4FBE016F5F7F4FC80138DFE1145E
:10081000F10451F48130910539F4880C991CAA1C1B
:10082000BB1C689480F809C0EA94EF2891F5892BE5
:10083000A1F5880C991CAA1CBB1C8FEFC81AD80AFA
:10084000209131023091320289819A818217930777
:1008500048F2F801D186C08684829582A682B7824A
:1008600083E090E09183808361E070E080E090E03D
:1008700017C060E070E0CB0113C060E070E0CB0116
:100880000FC060E070E0CB010BC060E070E0CB0116
:1008900007C060E070E0CB0103C060E070E0CB0116
:1008A0000F900F900F900F90DF91CF911F910F91AC
:1008B000FF90EF90DF90CF90BF90AF909F908F9080
:1008C000089595CE089593CE08956F927F928F925A
:1008D0009F92AF92BF92CF92DF92EF92FF920F93CF
:1008E0001F93CF93DF933C01FC01C284D384F601B4
:1008F0008281938168EF70E2E4DF892B09F48FC075
:100900008091310290913202869708F48CC0F601F2
:100910008481958160E970E1D6DF892B09F487C075
:1009200003E010E0812C912C5401E12CF12C54C0F7
:10093000F801EE0FFF1FEC0DFD1D8081918168E035
:1009400072E0BFDF892B09F476C0E8012196CC0F55
:10095000DD1FCC0DDD1D8881998160E476E0B3DF79
:10096000892B39F0880C991CAA1CBB1C689480F850
:100970000CC08881998168E072E0A5DF892B09F4B9
:100980005EC0880C991CAA1CBB1CC8010296F7E02B
:10099000EF16F104E9F4880F991FF601E80FF91F2B
:1009A0008081918168E072E08CDF892B09F44BC073
:1009B000F8013396EE0FFF1FEC0DFD1D8081918134
:1009C00060E970E180DF892B09F441C0C801049619
:1009D0002FEFE21AF20A8C0180E1E816F1040CF420
:1009E000A7CF000F111FF601E00FF11F8081918149
:1009F00068E072E066DF892B71F180E290E0F3013C
:100A00009187808784829582A682B7828BE090E06E
:100A10009183808361E070E080E090E01FC060E03F
:100A200070E0CB011BC060E070E0CB0117C060E05C
:100A300070E0CB0113C060E070E0CB010FC060E05C
:100A400070E0CB010BC060E070E0CB0107C060E05C
:100A500070E0CB0103C060E070E0CB01DF91CF918B
:100A60001F910F91FF90EF90DF90CF90BF90AF90CC
:100A70009F908F907F906F9008956F927F928F924A
:100A80009F92AF92BF92CF92DF92EF92FF920F931D
:100A90001F93CF93DF933C01FC01C284D384F60102
:100AA0008281938168E273E20CDF892B09F489C0AB
:100AB0008091310290913202049719F5F6018481F8
:100AC00095816AEC78E0FFDE892BD9F0F60186810A
:100AD000978160E372E0F5DE892B99F0F3011186CE
:100AE00010868FEF9FEFDC0184839583A683B78305
:100AF00081E090E09183808361E070E080E090E0AD
:100B000073C080913102909132028434910508F4CF
:100B10005CC0F6018481958164E971E1D4DE892BA2
:100B200009F457C003E010E0812C912C5401E12C12
:100B3000F12C31C0F801EE0FFF1FEC0DFD1D80817F
:100B4000918160E372E0BDDE892B09F446C0E801C3
:100B50002196CC0FDD1FCC0DDD1D8881998160E4CD
:100B600076E0B1DE892B39F0880C991CAA1CBB1CDD
:100B7000689480F80BC08881998160E372E0A3DEFD
:100B8000892B79F1880C991CAA1CBB1C0E5F1F4F86
:100B9000FFEFEF1AFF0A80E2E816F1045CF280E250
:100BA00090E0F3019187808784829582A682B78244
:100BB00081E090E09183808361E070E080E090E0EC
:100BC00013C060E070E0CB010FC060E070E0CB01CB
:100BD0000BC060E070E0CB0107C060E070E0CB01CB
:100BE00003C060E070E0CB01DF91CF911F910F91C6
:100BF000FF90EF90DF90CF90BF90AF909F908F903D
:100C00007F906F9008958F929F92AF92BF92CF92F4
:100C1000DF92EF92FF920F931F93CF93DF93209178
:100C20003102309132022A31310508F481C0FC01D1
:100C3000E284F384F70120813181243F314098F42C
:100C4000FC01118610864FEF5FEFBA014483558394
:100C50006683778329E030E03183208361E070E0B0
:100C600080E090E070C06C01F7018281938160E6C2
:100C700079E027DE892B09F45FC002E010E0812CC7
:100C8000912C54012BC0F801EE0FFF1FEE0DFF1D3C
:100C90008081918168E572E016DE892B41F1CC0FED
:100CA000DD1FCE0DDF1D8881998160EB74E009DEC8
:100CB000892B39F0880C991CAA1CBB1C689480F8FD
:100CC0000BC08881998168E572E0FBDD892BC1F159
:100CD000880C991CAA1CBB1C0E5F1F4FE8012196B3
:100CE0008091310290913202C817D90760F2015009
:100CF0001109C80199230CF4019695958795F60181
:100D0000918780870C9734F41186108660E070E03C
:100D1000CB0119C0F60184829582A682B78282E057
:100D200090E09183808361E070E080E090E00BC010
:100D300060E070E0CB0107C060E070E0CB0103C071
:100D400060E070E0CB01DF91CF911F910F91FF9098
:100D5000EF90DF90CF90BF90AF909F908F900895CD
:100D60008F929F92AF92BF92CF92DF92EF92FF92BB
:100D70000F931F93CF93DF93209131023091320272
:100D80002A31310508F48AC0FC01E284F384F701BA
:100D9000208131812032334098F4FC011186108685
:100DA0004FEF5FEFBA01448355836683778329E071
:100DB00030E03183208361E070E080E090E07DC02E
:100DC0006C01F701828193816CEA7DE07ADD892BE9
:100DD00009F468C0F701848195816CEA7DE071DDDA
:100DE000892B09F463C003E010E0812C912C54019D
:100DF0002BC0F801EE0FFF1FEE0DFF1D80819181CA
:100E000066EB73E060DD892B41F1CC0FDD1FCE0D69
:100E1000DF1D8881998160E679E053DD892B39F007
:100E2000880C991CAA1CBB1C689480F80BC0888194
:100E300099816CEB72E045DD892BE1F1880C991CFE
:100E4000AA1CBB1C0E5F1F4FE80121968091310246
:100E500090913202C817D90760F201501109C801F8
:100E600099230CF4019695958795F60191878087D3
:100E70000C9734F41186108660E070E0CB011DC041
:100E8000F60184829582A682B78289E090E0918300
:100E9000808361E070E080E090E00FC060E070E08F
:100EA000CB010BC060E070E0CB0107C060E070E0F8
:100EB000CB0103C060E070E0CB01DF91CF911F91C7
:100EC0000F91FF90EF90DF90CF90BF90AF909F90E9
:100ED0008F9008956F927F928F929F92AF92BF9260
:100EE000CF92DF92EF92FF920F931F93CF93DF93F6
:100EF00020913102309132022232310508F46EC065
:100F00003C01FC01C284D384F601828193816EE5A9
:100F100071E0D7DC892B09F465C002E010E0812C78
:100F2000912C54012DC0E801CC0FDD1FCC0DDD1D2F
:100F3000888199816EE977E0C4DC892B39F0880CCF
:100F4000991CAA1CBB1C689480F80CC088819981EC
:100F50006EEE72E0B6DC892B09F448C0880C991C4F
:100F6000AA1CBB1CF701EE0FFF1FEC0DFD1D8081BD
:100F700091816EE571E0A7DC892B71F00E5F1F4F48
:100F80007801FFEFEF1AFF0A80913102909132024F
:100F9000E816F90640F201C0870101501109C801A5
:100FA00099230CF4019695958795F3019187808795
:100FB000409734F41186108660E070E0CB0119C0D0
:100FC000F30184829582A682B7828AE090E09183C1
:100FD000808361E070E080E090E00BC060E070E052
:100FE000CB0107C060E070E0CB0103C060E070E0BF
:100FF000CB01DF91CF911F910F91FF90EF90DF9088
:10100000CF90BF90AF909F908F907F906F900895FA
:101010004F925F926F927F92AF92BF92CF92DF9288
:10102000EF92FF920F931F93CF93DF9300D000D0E6
:10103000CDB7DEB721E030E03A8329831C821B82E2
:10104000FC0124853585121613060CF0AAC08C010C
:10105000E284F384F701828193816AE67AE031DCED
:10106000892B09F4A2C082E090E09A838983F7017A
:101070008481958169E773E026DC892B09F499C0A6
:1010800083E090E09A8389832CEB31E0AE014D5FE1
:101090005F4FBE016F5F7F4FC801F1DA019709F022
:1010A0008CC02CEB31E0AE014D5F5F4FBE016F5F36
:1010B0007F4FC801E4DA892B09F083C0E12CF12CC1
:1010C000412C512C320155C02CEB31E0AE014D5F6B
:1010D0005F4FBE016F5F7F4FC801D1DA5C01F3E063
:1010E000EF16F10471F42CEB31E0AE014D5F5F4F70
:1010F000BE016F5F7F4FC801C2DAA816B90609F0BA
:1011000064C02CEB31E0AE014D5F5F4FBE016F5FFD
:101110007F4FC801B4DA6C0183E0E816F10471F482
:101120002CEB31E0AE014D5F5F4FBE016F5F7F4F33
:10113000C801A5DAC816D90609F04BC0E1E0AE1621
:10114000B10451F4C114D10439F4440C551C661C8B
:10115000771C689440F80AC0AB28F9F5CA94CD28EA
:1011600009F03FC0440C551C661C771C8FEFE81A31
:10117000F80AF8012485358589819A8182179307B9
:101180000CF4A2CFF186E086448255826682778293
:1011900084E090E09183808361E070E080E090E003
:1011A00023C060E070E0CB011FC060E070E0CB01C5
:1011B0001BC060E070E0CB0117C060E070E0CB01C5
:1011C00013C060E070E0CB010FC060E070E0CB01C5
:1011D0000BC060E070E0CB0107C060E070E0CB01C5
:1011E00003C060E070E0CB010F900F900F900F9064
:1011F000DF91CF911F910F91FF90EF90DF90CF90F3
:10120000BF90AF907F906F905F904F9008956F92D6
:101210007F928F929F92AF92BF92CF92DF92EF9286
:10122000FF920F931F93CF93DF934C01FC01028534
:101230001385F801828193816EEA7DE042DB892B80
:1012400009F49AC0F8018481958166ED76E039DB76
:10125000892B09F495C0612C712CC3E0D0E0C12C1E
:10126000D12C760135C05E01FFEFAF1ABF0AFE0137
:10127000EE0FFF1FE00FF11F8081918166EF71E09B
:1012800020DB892B09F480C0AA0CBB1CA00EB11E68
:10129000F501808191816CED74E015DB892B39F0CB
:1012A000CC0CDD1CEE1CFF1C6894C0F80DC0F501D1
:1012B0008081918160E971E006DB892B09F468C0C7
:1012C000CC0CDD1CEE1CFF1C2296FFEF6F1A7F0A70
:1012D00080E1681671043CF2F401D382C282612C71
:1012E000712C34C05E01FFEFAF1ABF0AFE01EE0F92
:1012F000FF1FE00FF11F8081918166EF71E0E1DA5D
:10130000892B09F449C0AA0CBB1CA00EB11EF50123
:10131000808191816CED74E0D6DA892B39F0CC0CA8
:10132000DD1CEE1CFF1C6894C0F80CC0F501808128
:10133000918160E971E0C7DA892B91F1CC0CDD1C59
:10134000EE1CFF1C2296FFEF6F1A7F0A80E26816E0
:10135000710444F2F401C482D582E682F78287E008
:1013600090E09183808380E390E09187808761E0C3
:1013700070E080E090E017C060E070E0CB0113C047
:1013800060E070E0CB010FC060E070E0CB010BC00B
:1013900060E070E0CB0107C060E070E0CB0103C00B
:1013A00060E070E0CB01DF91CF911F910F91FF9032
:1013B000EF90DF90CF90BF90AF909F908F907F90F5
:1013C0006F9008956F927F928F929F92AF92BF928B
:1013D000CF92DF92EF92FF920F931F93CF93DF9301
:1013E0008C018091310290913202829771F5F8015F
:1013F000C285D3858A819B8168E572E062DA892B98
:1014000021F1E0913102F0913202E150F048EE0F0B
:10141000FF1FEC0FFD1F8081918168E572E051DABA
:10142000892B99F0F801118610868FEF9FEFDC0170
:1014300084839583A683B78388E090E0918380833B
:1014400061E070E080E090E090C0F801C284D38455
:10145000F6018281938160E47FE133DA892B09F41C
:101460006DC08091310290913202819708F46AC078
:10147000F6018481958160EA7FE025DA892B09F401
:1014800065C0C3E0D0E0812C912C5401612C712CFB
:1014900034C0FE01EE0FFF1FEC0DFD1D8081918118
:1014A00068E572E00EDA892B09F454C07E01FFEF83
:1014B000EF1AFF0AEE0CFF1CEC0CFD1CF7018081FB
:1014C000918160E476E0FFD9892B39F0880C991C72
:1014D000AA1CBB1C689480F80CC0F7018081918124
:1014E00066E272E0F0D9892BC9F1880C991CAA1C1C
:1014F000BB1C2296FFEF6F1A7F0A80E16816710409
:1015000044F2CC0FDD1FCC0DDD1D8881998168E58B
:1015100072E0D7D9892B31F180E190E0F801918711
:10152000808784829582A682B78288E090E091834A
:10153000808361E070E080E090E017C060E070E0E0
:10154000CB0113C060E070E0CB010FC060E070E041
:10155000CB010BC060E070E0CB0107C060E070E041
:10156000CB0103C060E070E0CB01DF91CF911F9110
:101570000F91FF90EF90DF90CF90BF90AF909F9032
:101580008F907F906F900895E5E6F1E0118282E000
:10159000808310923202109231028AB18F778AB919
:1015A000F8940E9437020E943502789408950E94B0
:1015B000350289B1282F221F2227221FE5E6F1E0FC
:1015C00082819381019693838283809131029091ED
:1015D00032028436910518F085E080936501809190
:1015E00065018330D1F118F4823041F008958430E0
:1015F00009F453C0853009F47BC00895213009F007
:101600007DC080916701909168018436910528F42E
:1016100010926801109267010895A5E6B1E0E1E338
:10162000F2E011821082808191819C012F5F3F4FF7
:101630003183208312962D913C911397FC013296B1
:10164000EE0FFF1FEB59FE4F3183208313961C9240
:101650001E92129783E08C93089521114FC0A5E646
:10166000B1E0E1E3F2E0808191819C012F5F3F4F87
:101670003183208312962D913C911397FC01329671
:10168000EE0FFF1FEB59FE4F3183208313961C9200
:101690001E92129784E08C9308952130F1F4A5E610
:1016A000B1E0E1E3F2E0808191819C012F5F3F4F47
:1016B0003183208312962D913C911397FC01329631
:1016C000EE0FFF1FEB59FE4F3183208313961C92C0
:1016D0001E92129783E08C930895809167019091F8
:1016E00068018536910550F085E080936501089585
:1016F000213021F41092680110926701089582E070
:101700008093650110923202109231020895CF93B6
:10171000DF932091310230913202FC01358724871A
:1017200029E631E03387228720916501253009F0D1
:1017300045C0EC01CAD8672B682B692B09F041C062
:10174000CE019BD9672B682B692B09F03DC0CE01D8
:101750005ADA672B682B692B09F039C0CE0100DB00
:10176000672B682B692BB1F5CE01B4DB672B682B97
:10177000692B99F5CE010E94A703672B682B692B73
:1017800079F5CE0145DC672B682B692B61F5CE011D
:101790003EDD672B682B692B49F5CE0113DE672BE5
:1017A000682B692B31F5CE010E948E02672B682BC6
:1017B000692B11F5A4DF80E090E020C080E090E08C
:1017C0001DC081E090E01AC081E090E017C081E088
:1017D00090E014C081E090E011C081E090E00EC084
:1017E00081E090E00BC081E090E008C081E090E0F3
:1017F00005C081E090E002C081E090E0DF91CF91F0
:101800000895CF93882331F08091600181608093A7
:10181000600105C0809160018E7F8093600180919E
:1018200060018260809360016091600187E0EED189
:1018300062E087E037D200C064E087E04ED28823C0
:1018400011F0C0E001C0C0E165E087E046D281113F
:1018500001C0C06266E087E040D2811101C0C0646F
:1018600067E087E03AD2811101C0C06862E087E09A
:101870001CD200C062E087E015D200C064E087E0BF
:101880002CD2811101C0C16065E087E026D28111B0
:1018900001C0C26066E087E020D2811101C0C4604F
:1018A00067E087E01AD2811101C0C86062E087E07A
:1018B000FCD18C2FCF91089580E0A3DF8823E4F33F
:1018C00084E090E00197F1F780E09BCF089562E01B
:1018D00087E0E8D100C062E087E0E7C10895CF93D8
:1018E000C82F662331F08091600181608093600190
:1018F00005C0809160018E7F8093600180916001BE
:101900008D7F809360016091600187E07FD180913D
:1019100060018F7780936001809160018F7B80935D
:101920006001809160018F7D8093600180916001F2
:101930008F7E80936001CC232CF4809160018068BD
:1019400080936001C6FF05C0809160018064809330
:101950006001C5FF05C080916001806280936001D5
:10196000C4FF05C080916001806180936001609137
:10197000600187E04BD1ABDF809160018F7780936E
:101980006001809160018F7B809360018091600194
:101990008F7D80936001809160018F7E80936001D4
:1019A000C3FF05C080916001806880936001C2FF21
:1019B00005C080916001806480936001C1FF05C013
:1019C00080916001806280936001C0FF05C08091BA
:1019D00060018061809360016091600187E016D1B1
:1019E00076DF809160018061809360018091600169
:1019F00080628093600180916001806480936001C7
:101A0000809160018068809360016091600187E04F
:101A1000FDD0CF910895CF93C82F4EDF60E08C2F7B
:101A20005EDFCF910895611103C08058F4CF08950F
:101A30008054F1CF089581E0EECF0895882331F0EE
:101A400080916001877F8093600105C08091600173
:101A50008860809360016091600187E0D7C008953D
:101A600082E0D9CF0895CF93C82F26DFCA3041F442
:101A7000803410F480E401C080E08058CCDF03C0E3
:101A800061E08C2F2CDFCF910895CF93DF93FC0181
:101A900002C0E9DFFE01EF01219680818111F9CFBB
:101AA000DF91CF9108951F93CF93DF93182F9DD08F
:101AB000109260016091600187E0A8D080E09DE70E
:101AC0000197F1F7809160018062809360018091BD
:101AD00060018061809360016091600187E096D031
:101AE000F6DE80E097E20197F1F7F1DEC0E8D0E0A2
:101AF000CE010197F1F7EBDECE010197F1F780916E
:101B000060018F7E809360016091600187E07ED0EC
:101B1000DEDE2197F1F788E27EDF88E07CDF8BDF75
:101B200086E079DF812F77DFDF91CF911F910895D4
:101B3000CF93DF9300D0CDB7DEB78AB180648AB986
:101B4000E4D078948CE0AFDF80E078DF81EE90E045
:101B50009093640180936301CE010196EDD00E94C1
:101B6000B30080910001882359F081E080933C010B
:101B7000E0916301F091640109951092000105C0A4
:101B8000E0916301F091640109950E94CE010E94E9
:101B90008E00E5CF1F920F920FB60F9211242F9354
:101BA0003F934F935F936F937F938F939F93AF93E5
:101BB000BF93EF93FF9380915F01882321F08130E1
:101BC00019F4F5DC01C0AED0FF91EF91BF91AF9158
:101BD0009F918F917F916F915F914F913F912F9145
:101BE0000F900FBE0F901F9018950E94E50183E0A3
:101BF0008A95F1F7000080E006C0E82FF0E0ED5C88
:101C0000FD4F10828F5F8830C0F30895CF938830E6
:101C100088F4C62FE82FF0E0ED5CFD4F6083805E16
:101C2000880F0E94EB018C2F0E9419020E94110262
:101C300080E001C08FEFCF910895CF93DF9388307C
:101C400058F5683058F5282F30E0F901ED5CFD4F6C
:101C50009081442349F0C1E0D0E002C0CC0FDD1FE9
:101C60006A95E2F7C92B09C0C1E0D0E002C0CC0FF1
:101C7000DD1F6A95E2F7C095C923F901ED5CFD4FC0
:101C8000C083805E880F0E94EB018C2F0E94190296
:101C90000E94110280E003C08FEF01C08FEFDF913F
:101CA000CF91089541E0C9CF089540E0C6CF08958F
:101CB000CF93883070F490E08096880F991F8160F0
:101CC0000E94EB010E942B02C82FC0950E941102B6
:101CD00001C0CFEF8C2FCF910895CF93883080F43F
:101CE000683080F4C62FE4DF8F3F69F0082E000CC7
:101CF000990B02C095958795CA95E2F7817003C04C
:101D00008FEF01C08FEFCF910895EEE6F0E01082E3
:101D100010925F018EE487BD82E084BD95E095BDA1
:101D20008083089580916101909162010196909362
:101D300062018093610108952091610130916201F7
:101D4000FC013183208308955058BB27AA270ED069
:101D500075C166D130F06BD120F031F49F3F11F4A2
:101D60001EF45BC10EF4E095E7FB51C1E92F77D17A
:101D700080F3BA17620773078407950718F071F4A8
:101D80009EF58FC10EF4E0950B2EBA2FA02D0B01FE
:101D9000B90190010C01CA01A0011124FF27591BB0
:101DA00099F0593F50F4503E68F11A16F040A22FB6
:101DB000232F342F4427585FF3CF46953795279527
:101DC000A795F0405395C9F77EF41F16BA0B620B26
:101DD000730B840BBAF09150A1F0FF0FBB1F661F6D
:101DE000771F881FC2F70EC0BA0F621F731F841FB0
:101DF00048F4879577956795B795F7959E3F08F0D6
:101E0000B3CF9395880F08F09927EE0F9795879594
:101E10000895D9D008F481E008950CD00FC107D1FE
:101E200040F0FED030F021F45F3F19F0F0C05111C6
:101E300039C1F3C014D198F39923C9F35523B1F3F1
:101E4000951B550BBB27AA2762177307840738F029
:101E50009F5F5F4F220F331F441FAA1FA9F333D088
:101E60000E2E3AF0E0E830D091505040E695001C3C
:101E7000CAF729D0FE2F27D0660F771F881FBB1FF8
:101E8000261737074807AB07B0E809F0BB0B802DD2
:101E9000BF01FF2793585F4F2AF09E3F510568F01E
:101EA000B6C000C15F3FECF3983EDCF386957795B2
:101EB0006795B795F7959F5FC9F7880F911D969520
:101EC000879597F90895E1E0660F771F881FBB1F7C
:101ED000621773078407BA0720F0621B730B840B29
:101EE000BA0BEE1F88F7E095089504D06894B111FD
:101EF000D9C00895BCD088F09F5790F0B92F99278A
:101F0000B751A0F0D1F0660F771F881F991F1AF004
:101F1000BA95C9F712C0B13081F0C3D0B1E00895CD
:101F2000C0C0672F782F8827B85F39F0B93FCCF34E
:101F3000869577956795B395D9F73EF490958095FA
:101F4000709561957F4F8F4F9F4F0895E89409C01A
:101F500097FB3EF490958095709561957F4F8F4FDC
:101F60009F4F9923A9F0F92F96E9BB279395F695F2
:101F7000879577956795B795F111F8CFFAF4BB0F70
:101F800011F460FF1BC06F5F7F4F8F4F9F4F16C0D4
:101F9000882311F096E911C0772321F09EE8872F5E
:101FA000762F05C0662371F096E8862F70E060E01A
:101FB0002AF09A95660F771F881FDAF7880F969593
:101FC000879597F90895990F0008550FAA0BE0E837
:101FD000FEEF16161706E807F907C0F012161306EB
:101FE000E407F50798F0621B730B840B950B39F42B
:101FF0000A2661F0232B242B252B21F408950A2691
:1020000009F4A140A6958FEF811D811D089597F9D0
:102010009F6780E870E060E008959FEF80EC08958E
:1020200000240A94161617061806090608950024B7
:102030000A9412161306140605060895092E039431
:10204000000C11F4882352F0BB0F40F4BF2B11F4A5
:1020500060FF04C06F5F7F4F8F4F9F4F089557FD04
:102060009058440F551F59F05F3F71F04795880F06
:1020700097FB991F61F09F3F79F08795089512169D
:1020800013061406551FF2CF4695F1DF08C0161649
:1020900017061806991FF1CF8695710561050894FA
:1020A0000895E894BB2766277727CB0197F9089511
:1020B0000BD0C4CFB5DF28F0BADF18F0952309F0B4
:1020C000A6CFABCF1124EECFCADFA0F3959FD1F3FB
:1020D000950F50E0551F629FF001729FBB27F00DD6
:1020E000B11D639FAA27F00DB11DAA1F649F66272B
:1020F000B00DA11D661F829F2227B00DA11D621F7A
:10210000739FB00DA11D621F839FA00D611D221F33
:10211000749F3327A00D611D231F849F600D211D17
:10212000822F762F6A2F11249F5750408AF0E1F0BA
:1021300088234AF0EE0FFF1FBB1F661F771F881F03
:1021400091505040A9F79E3F510570F060CFAACF43
:102150005F3FECF3983EDCF3869577956795B795EE
:10216000F795E7959F5FC1F7FE2B880F911D969518
:10217000879597F90895DB018F939F9311D0BF91B5
:10218000AF91A29F800D911DA39F900DB29F900DC6
:1021900011240895EE0FFF1F0590F491E02D09948E
:1021A00009D0A59F900DB49F900DA49F800D911D07
:1021B00011240895A29FB001B39FC001A39F700D89
:1021C000811D1124911DB29F700D811D1124911D3F
:0621D0000895F894FFCF12
:1021D60001506C6179005370792026205265636F37
:1021E600726400437573746F6D00537079696E671E
:1021F6002E2E2E20507265737300302D3920746F89
:082206002073617665202100C0
:00000001FF
