S01400004861636B495252656D6F74652E7372656392
S113000033C0000041C000003FC000003DC00000FC
S11300103BC0000039C0000037C0000095C100009B
S113002033C0000031C000002FC000002DC000000C
S11300302BC0000029C0000064C1000025C00000DE
S113004023C0000021C000001FC000001DC000002C
S11300501BC0000019C0000017C0000015C000003C
S113006013C0000011C0000011241FBECFEFD8E060
S1130070DEBFCDBF21E0A0E0B1E001C01D92AE3CE7
S1130080B207E1F72FD172C1BBCF16BC089510920D
S11300906E0082ED87BD82E484BD81E085BD089554
S11300A0E1E8F0E01082109285001092840026B3FB
S11300B0226026BB880F991F909389008093880043
S11300C0109280008AE08083B19BFECF089524B50E
S11300D0206424BD24B5206424BD24B5206424BD3B
S11300E024B5206424BDDCCF089524B52F7B24BD22
S11300F0D7CF08959AB190649AB99BB19F7B9BB96D
S1130100C6CF0895CF92DF92EF92FF920F931F9381
S1130110CF93DF936B017C018A0110926E0086E21B
S113012090E0E8DF88E293E2D2DF84E991E1DDDF69
S1130130C0E0D0E014C0FF203CF480E392E0C7DFCD
S113014080E496E0D2DF06C080E392E0C0DF80E383
S113015092E0CBDFCC0CDD1CEE1CFF1C2196C017FB
S1130160D1074CF380E392E0B2DF80E090E0BDDFA2
S113017082E080936E00DF91CF911F910F91FF90E9
S1130180EF90DF90CF90089580DF83B1807190E08D
S11301909595879595958795959587959595879543
S11301A0E0E0F1E0228133812F5F3F4F33832283EC
S11301B02091CC013091CD012436310518F095E021
S11301C090930001909100019330D1F118F4923092
S11301D041F00895943009F453C0953009F47BC07C
S11301E00895813009F07DC080910201909103014E
S11301F08436910528F410920301109202010895A7
S1130200A0E0B1E0ECECF1E01182108280819181F8
S11302109C012F5F3F4F3183208312962D913C9197
S11302201397FC013296EE0FFF1FE050FF4F31830E
S1130230208313961C921E92129783E08C93089548
S113024081114FC0A0E0B1E0ECECF1E0808191813C
S11302509C012F5F3F4F3183208312962D913C9157
S11302601397FC013296EE0FFF1FE050FF4F3183CE
S1130270208313961C921E92129784E08C93089507
S11302808130F1F4A0E0B1E0ECECF1E08081918107
S11302909C012F5F3F4F3183208312962D913C9117
S11302A01397FC013296EE0FFF1FE050FF4F31838E
S11302B0208313961C921E92129783E08C930895C8
S11302C080910201909103018536910550F085E0FB
S11302D0809300010895813021F41092030110925B
S11302E00201089540E250E06FED70E28FEF90E07C
S11302F009DF40E250E06FED70E28FEF90E002DF43
S1130300F8CF1F920F920FB60F9211242F933F93A1
S11303104F935F936F937F938F939F93AF93BF9309
S1130320EF93FF9331DFFF91EF91BF91AF919F91D5
S11303308F917F916F915F914F913F912F910F908A
S11303400FBE0F901F9018951F920F920FB60F9229
S113035011248F939F9395B181E2892785B99F9149
S11303608F910F900FBE0F901F901895F894FFCFA8
S9030000FC
