:10000000E3C00000FEC00000FCC00000FAC0000019
:10001000F8C00000F6C00000F4C000000C940C14FE
:10002000F0C00000EEC00000ECC00000EAC000001C
:10003000E8C00000E6C000000C94E913E2C0000034
:10004000E0C00000DEC00000DCC00000DAC000003C
:10005000D8C00000D6C00000D4C00000D2C000004C
:10006000D0C00000CEC00000FD02FD020403FD026E
:100070000403040304030403FD02FD020403FD0260
:100080000403040304030403040304030403040338
:100090000403040304030403FD02FD020403FD0240
:1000A0000403040304030403040304030403040318
:1000B0000403040304030403040304030403040308
:1000C00004030403040304030403040304030403F8
:1000D0000403040304030403FD02FD020403FD0200
:1000E000EF03F5033004FB03300430043004300424
:1000F0000104070430040D043004300430043004DB
:10010000300430043004300430043004300430044F
:100110001304190430041F04300430043004300484
:10012000300430043004300430043004300430042F
:10013000300430043004300430043004300430041F
:10014000300430043004300430043004300430040F
:100150002504E903CD04D3040305D90403050305ED
:1001600003050305DF04E5040305EB0403050305AC
:10017000030503050305030503050305030503053F
:1001800003050305F104F7040305FD040305030556
:10019000030503050305030503050305030503051F
:1001A000030503050305030503050305030503050F
:1001B00003050305030503050305030503050305FF
:1001C000030503050305C70411241FBECFEFD8E0C4
:1001D000DEBFCDBF11E0A0E0B1E0E0E6F4E302C095
:1001E00005900D92AE3AB107D9F722E0AEEAB1E040
:1001F00001C01D92A33CB207E1F70E94B2130C9418
:100200002E1AFECEDF92EF92FF920F931F93CF93A1
:10021000DF93EC01D62E888199818230910509F413
:1002200049C083309105F9F0019709F0C7C08C816E
:100230009D81AE81BF816B2F7727882799272D2D30
:1002400030E07901EE0CFF1CEE0CFF1C8701020F61
:10025000131FC80102960E94E5196D81C80103961B
:100260000E94E5199FC08C819D81AE81BF81807CF9
:100270009370AA27BB27BC01CD01689415F8969509
:100280008795779567951694D1F72D2D30E07901F4
:10029000EE0CFF1CEE0CFF1C8701020F131FC801A0
:1002A00002960E94E5196C816F73C80103960E9443
:1002B000E51978C068858D2D90E07C01EE0CFF1C5F
:1002C000EE0CFF1C8701080F191FC80101960E9440
:1002D000E519888599858C309105E9F46C816F71F9
:1002E000C80102960E94E5198C819D81AE81BF8173
:1002F000807E9F70AA27BB27BC01CD01689414F8AB
:1003000096958795779567951694D1F7C8010396CA
:100310000E94E51947C08F309105B1F46C81C80186
:1003200002960E94E5198C819D81AE81BF8188274C
:100330009F77AA27BB27692F7A2F8B2F9927C80170
:1003400003960E94E5192EC0449761F58C819D812A
:10035000AE81BF8188279F71AA27BB27692F7A2F7B
:100360008B2F9927C80102960E94E5198C819D81E7
:10037000AE81BF818827907EAF70BB27BC01CD01C5
:10038000052E5DE096958795779567955A95D1F7F7
:10039000502DC80103960E94E5196C81C80104968E
:1003A0000E94E51968818D2D90E09C01220F331F7A
:1003B000220F331F820F931F0E94E519DF91CF9107
:1003C0001F910F91FF90EF90DF9008958F929F9271
:1003D000AF92BF92CF92DF92EF92FF920F931F9353
:1003E000CF93DF937C0170E0EB01CC0FDD1FCC0FCE
:1003F000DD1FC60FD71FCE010E94DD19082F10E0A8
:10040000F70111830083CE0102960E94DD19C82EE8
:10041000CE0103960E94DD19D82E0230110509F491
:1004200052C003301105E9F10130110509F09CC0FB
:1004300080E290E0F701918780874C2D50E060E0EA
:1004400070E0B42FAA27992788272C2D30E020951B
:100450003095A9015527052E000C660B770BBA01C4
:1004600055274427482B592B6A2B7B2B2D2D30E009
:10047000922F8827A0E0B0E0482B592B6A2B7B2BCA
:10048000C901809590959927092E000CAA0BBB0BEA
:10049000842B952BA62BB72B84839583A683B783B8
:1004A00068C08BE090E0F70191878087F0E4CF9EF1
:1004B000C00111248D29A0E0B0E0F7018483958369
:1004C000A683B78356C0CE0101960E94DD19082F7E
:1004D00010E0F70111870087CE0104960E94DD1914
:1004E0000C30110569F4F0E2DF9EC00111248C2963
:1004F000A0E0B0E0F70184839583A683B78339C079
:100500000F30110569F48D2D90E0982F88278C29E4
:10051000A0E0B0E0F70184839583A683B78329C068
:100520000431110531F54D2D50E060E070E04A01D5
:100530005B01072E7DE0880C991CAA1CBB1C7A95D8
:10054000D1F7702D2C2D30E0322F2227A90160E049
:1005500070E0482959296A297B29482BF7014483EF
:1005600055836683778305C08FEF9FEFF7019183F3
:100570008083DF91CF911F910F91FF90EF90DF90DB
:10058000CF90BF90AF909F908F9008951092B00140
:100590001092AF01089585B1887F85B984B1887FB5
:1005A00084B984B1886784B985B1886785B90895AD
:1005B00085B1877885B984B1877884B984B187603B
:1005C00084B985B1876085B9089583B1877008952E
:1005D00083B188770895CF93DEDFF7DFC82FE8DF98
:1005E000F7DF8C2B482F50E0FA013997EC33F105F7
:1005F00058F4EC5CFF4F0C941D179091AE018917D5
:1006000061F08093B00109C08091AE01882321F090
:100610008093AF0180E001C080E02091B001909113
:10062000AF01291302C01092B0018093AE01CF91A7
:100630000895CF93DF9363E081EB91E023D2909113
:10064000C501892B8093C50180910001882319F091
:1006500081E08093C5018091B1018130E9F018F00B
:10066000823099F140C0C6ECD1E09EE3988395E0DA
:10067000E1E0F1E0A7ECB1E001900D929A95E1F78D
:1006800090E2998B9DE0E6E0F1E0A8EDB1E0019009
:100690000D929A95E1F727C0C6ECD1E090E29883DD
:1006A00095E0E1E0F1E0A7ECB1E001900D929A95C0
:1006B000E1F79EE3998B9DE0E6E0F1E0A8EDB1E083
:1006C00001900D929A95E1F70EC0C6ECD1E09EE341
:1006D000988397E0E3E1F1E0A7ECB1E001900D929F
:1006E0009A95E1F7198A9091B0019231A9F4882383
:1006F00019F0813041F00DC088EB93E09093EC014C
:100700008093EB0106C088E195E09093EC01809323
:10071000EB0181E080930001DF91CF910895CF93A9
:10072000DF93EC018881998182309105B1F08330AB
:10073000910559F00197C9F4488559856C817D81EF
:100740008E819F810E94F80F10C0488559856C8169
:100750007D818E819F810E948A10488559856C8198
:100760007D818E819F810E943F10DF91CF910895FE
:10077000CF93DF93CDB7DEB72E970FB6F894DEBFD9
:100780000FBECDBF809100018823A9F08DE0EAE182
:10079000F1E0A6ECB1E001900D928A95E1F781E1DC
:1007A000E7E2F1E0A7EDB1E001900D928A95E1F763
:1007B00081E08093C501E091B0018E2F90E0FC01B3
:1007C0003997EA33F10508F04BC0E059FF4F0C941C
:1007D0001D1760E0CE010196F9DD81E042C061E0C5
:1007E000CE010196F3DD81E03CC062E0CE010196CE
:1007F000EDDD81E036C063E0CE010196E7DD81E00A
:1008000030C064E0CE010196E1DD81E02AC065E000
:10081000CE010196DBDD81E024C066E0CE010196C9
:10082000D5DD81E01EC067E0CE010196CFDD81E01D
:1008300018C068E0CE010196C9DD81E012C069E010
:10084000CE010196C3DD81E00CC089E193E0909375
:10085000EC018093EB0181E08093000180E001C016
:1008600080E0882331F0CE01019659DFCE01019658
:1008700045D12E960FB6F894DEBF0FBECDBFDF91E7
:10088000CF91089580910001882391F081E1E8E300
:10089000F1E0A6ECB1E001900D928A95E1F710929B
:1008A000D70181E08093C50182EB91E00E94D514CD
:1008B00082EB91E00E94DD148536910548F088E1D5
:1008C00095E09093EC018093EB0181E0809300012F
:1008D0000895CF93DF93CDB7DEB72E970FB6F89478
:1008E000DEBF0FBECDBFCE0101960E94A0118823AE
:1008F00019F18091C40181111FC089819A81E6EBB1
:10090000F1E09183808389859A85918780878D81A5
:100910009E81AF81B88584839583A683B7838B81BD
:100920009C8193838283CF01E9D084EB91E00E9484
:10093000D51481E08093C40184EB91E00E94DD1422
:10094000459740F08091C401882321F00E949811BE
:100950001092C4018091B6019091B701019602975F
:1009600008F45DC080910001882319F086EB91E0C6
:10097000C5D0E091B0018E2F90E0FC013997EA33A9
:10098000F10508F040C0E655FF4F0C941D1760E0DC
:1009900086EB91E037DC81E037C061E086EB91E0E7
:1009A00031DC81E031C062E086EB91E02BDC81E05C
:1009B0002BC063E086EB91E025DC81E025C064E09C
:1009C00086EB91E01FDC81E01FC065E086EB91E0E3
:1009D00019DC81E019C066E086EB91E013DC81E070
:1009E00013C067E086EB91E00DDC81E00DC068E0AC
:1009F00086EB91E007DC81E007C069E086EB91E0DF
:100A000001DC81E001C080E0882349F082E494E0C9
:100A10009093EC018093EB0181E0809300012E968E
:100A20000FB6F894DEBF0FBECDBFDF91CF91089512
:100A3000809100018823B9F00E94DD1080E1E9E493
:100A4000F1E0A6ECB1E001900D928A95E1F78EE01D
:100A5000E9E5F1E0A7EDB1E001900D928A95E1F7AB
:100A600081E08093C50135DF8091B001813449F484
:100A700089E193E09093EC018093EB0181E0809316
:100A800000010895FC019091B0019A3019F0923262
:100A900061F01BC08081811104C06150608381E0DE
:100AA00008958150808381E008958081282F30E06F
:100AB00070E0615071092617370719F4108281E040
:100AC00008958F5F808381E0089580E0089580918C
:100AD000C501882391F00E9435130E944A1386ECC9
:100AE00091E00E945F1361E080E00E942D1387ED8A
:100AF00091E00E945F131092C5010895CF93DF9398
:100B0000EC0186E0E7E6F1E0A6ECB1E001900D92A1
:100B10008A95E1F7888199818230910509F480C036
:100B20008330910509F440C0019709F02DC1EBEC29
:100B3000F1E08EE495E49183808383E490E09383F5
:100B400082838C819D81AE81BF818F3F2FEF920781
:100B5000A207B207F9F01F929F932DE631E03F9371
:100B60002F931F92BF9382E791E09F938F9388E723
:100B700091E09F938F9387ED91E09F938F930E94D5
:100B80003C178DB79EB70C960FB6F8949EBF0FBE5C
:100B90008DBF05C18CE0E8E8F1E0A7EDB1E0019080
:100BA0000D928A95E1F7FBC0EBECF1E082E593E46E
:100BB0009183808385E390E0938382838C819D8100
:100BC000AE81BF81AC01BD01407C5770662777279D
:100BD000689415F876956795579547951694D1F7CB
:100BE0008F731F928F938DE691E09F938F931F9247
:100BF0004F9382E791E09F938F9388E791E09F93D3
:100C00008F9387ED91E09F938F930E943C178DB750
:100C10009EB70C960FB6F8949EBF0FBE8DBFBFC097
:100C200085E0E4E9F1E0ABECB1E001900D928A954A
:100C3000E1F7888599858C30910591F58C819D81AE
:100C4000AE81BF81AC01BD01407E5F706627772712
:100C5000689414F876956795579547951694D1F74B
:100C60001F924F932DE631E03F932F938F711F9288
:100C70008F9382E791E09F938F9388E791E09F9312
:100C80008F9387ED91E09F938F930E943C178DB7D0
:100C90009EB70C960FB6F8949EBF0FBE8DBF7FC057
:100CA0008F30910549F58C819D81AE81BF81AC016A
:100CB000BD0144275F77662777271F925F932DE654
:100CC00031E03F932F931F928F9382E791E09F93A0
:100CD0008F9388E791E09F938F9387ED91E09F93A7
:100CE0008F930E943C178DB79EB70C960FB6F89461
:100CF0009EBF0FBE8DBF53C0449709F050C08C817A
:100D00001F928F9386EC91E09F938F9329E931E0B6
:100D10003F932F939F938F930E943C178C819D81CB
:100D2000AE81BF81AC01BD014427507E6F70772733
:100D3000032E3DE076956795579547953A95D1F7FF
:100D4000302D88279F71AA27BB271F924F932DE62E
:100D500031E03F932F931F929F9382E791E09F93FF
:100D60008F9388E791E09F938F9387ED91E09F9316
:100D70008F930E943C178DB79EB744960FB6F89498
:100D80009EBF0FBE8DBF0BC088E0E5EAF1E0ABEC83
:100D9000B1E001900D928A95E1F71092D70181E0C0
:100DA0008093C501DF91CF9108951092B9008CE531
:100DB0008093B800089594EA9093BC009091BC0091
:100DC0009923E4F79091B900987F983011F0903111
:100DD00091F48093BB0084E88093BC008091BC00B8
:100DE0008823E4F78091B900887F883131F080341E
:100DF00031F480E0089581E0089580E0089581E075
:100E0000089584E98093BC008091BC0084FDFCCFF0
:100E100008958093BB0084E88093BC008091BC005F
:100E20008823E4F78091B900887F883211F081E04F
:100E3000089580E0089584E88093BC008091BC0010
:100E40008823E4F78091BB00089516BC089586E0DE
:100E500087BD82E084BD93E095BD80936E000895C8
:100E600010926E00682F70E080E090E00E94F9150B
:100E70009B01AC0160E070E08AE795E40E94601598
:100E80000E94CD1567BD82E484BD81E085BD0895D3
:100E90009C01E1E8F0E0108210928500109284003D
:100EA00096B3926096BB309389002093880010928D
:100EB00080008AE08083B19BFECF089524B5206432
:100EC00024BD24B5206424BD24B5206424BD24B5EC
:100ED000206424BDDDCF089524B52F7B24BDD8CF59
:100EE00008959AB190649AB99BB19F7B9BB9B8CF92
:100EF00008958F929F92AF92BF92CF92DF92EF921E
:100F0000FF92CF93DF93EC0180E090E00E94F9150F
:100F10004B015C01BE0180E090E00E94F9156B017D
:100F20007C012DEC3CEC4CE45FE30E94AB169B0192
:100F3000AC01C501B4010E945C1588239CF02DEC26
:100F40003CEC4CE45FE3C501B4010E94AB169B018D
:100F5000AC01C701B6010E945C15882334F482E01D
:100F600090E005C080E090E002C081E090E0DF9179
:100F7000CF91FF90EF90DF90CF90BF90AF909F9078
:100F80008F900895AF92BF92CF92DF92EF92FF922F
:100F90000F931F93CF93DF93FC01A484B584F6E0F5
:100FA000AF16B1040CF449C0EC0101E010E00F2EC3
:100FB000F5ECCF2EFDE9DF2EFCE1EF2EF1E8FF2E60
:100FC000F02D25C08A859B85F8013296EE0FFF1F14
:100FD000E80FF91F60817181F801EE0FFF1FE80F24
:100FE000F91F8081918185DFFC01A701960163E9EA
:100FF00071E080E091E00E940E176F01FF0FEE0894
:10100000FF08C626D726E826F9260F5F1F4FC8011E
:1010100002968A159B05B4F2CC82DD82EE82FF82B5
:1010200080E290E0998788878FEF9FEF998388838C
:1010300061E070E080E090E003C060E070E0CB0130
:10104000DF91CF911F910F91FF90EF90DF90CF90A4
:10105000BF90AF900895CF92DF92EF92FF92CF931F
:10106000DF93EC01072E000C880B990B0E94FB15F7
:101070006B017C0120E030E040E45FE30E94AB16AE
:1010800020E030E048E452E40E9460150E94C81558
:10109000C617D707E4F020E030E040EA5FE3C7017D
:1010A000B6010E94AB1620E030E048E452E40E9412
:1010B000601520E030E040E85FE30E94F8140E94F1
:1010C000C8156C177D0734F480E090E005C080E01F
:1010D00090E002C081E090E0DF91CF91FF90EF902F
:1010E000DF90CF900895AF92BF92CF92DF92EF92B0
:1010F000FF920F931F93CF93DF93DB01ED91FC9150
:10110000EC01AC85BD85EA17FB070CF041C0AA8550
:10111000BB85CF01880F991FA80FB91FAD90BC9058
:1011200081E0E0FF80E079018A01EB01C82ED12C3B
:10113000B901C50190DF892B99F4B701660F771FBC
:10114000C50189DF892B79F4B701660F771F6E0D12
:101150007F1DC50180DF892BF1F023E030E005C061
:1011600021E030E002C022E030E0F801808191818E
:101170000196918380838217930784F011821082F5
:10118000888199810196998388838C2D9D2D08C033
:1011900080E090E005C08FEF9FEF02C08C2D9D2D69
:1011A000DF91CF911F910F91FF90EF90DF90CF9043
:1011B000BF90AF9008958F929F92AF92BF92CF92BF
:1011C000DF92EF92FF920F931F93CF93DF9300D0A4
:1011D00000D0CDB7DEB721E030E03A8329831C820E
:1011E0001B822091B9023091BA022D30310508F4EA
:1011F00074C08C0129E733E0AE014D5F5F4FBE0143
:101200006F5F7F4F70DF019709F06BC029E733E014
:10121000AE014D5F5F4FBE016F5F7F4FC80163DF5F
:10122000892B09F062C029E733E0AE014D5F5F4FC3
:10123000BE016F5F7F4FC80156DF019709F059C0AB
:10124000C12CD12C812C912C54012EC029E733E0E4
:10125000AE014D5F5F4FBE016F5F7F4FC80143DF3F
:101260007C0129E733E0AE014D5F5F4FBE016F5F48
:101270007F4FC80138DFE114F10451F4813091054A
:1012800039F4880C991CAA1CBB1C689480F809C00E
:10129000EA94EF2891F5892BA1F5880C991CAA1CDA
:1012A000BB1C8FEFC81AD80A2091B9023091BA023C
:1012B00089819A818217930748F2F801D186C08606
:1012C00084829582A682B78283E090E091838083B6
:1012D00061E070E080E090E017C060E070E0CB017A
:1012E00013C060E070E0CB010FC060E070E0CB01A4
:1012F0000BC060E070E0CB0107C060E070E0CB01A4
:1013000003C060E070E0CB010F900F900F900F9042
:10131000DF91CF911F910F91FF90EF90DF90CF90D1
:10132000BF90AF909F908F90089595CE089593CEE3
:1013300008956F927F928F929F92AF92BF92CF92B9
:10134000DF92EF92FF920F931F93CF93DF933C01B5
:10135000FC01C284D384F6018281938168EF70E23C
:10136000E4DF892B09F48FC08091B9029091BA0211
:10137000869708F48CC0F6018481958160E970E15C
:10138000D6DF892B09F487C003E010E0812C912C73
:101390005401E12CF12C54C0F801EE0FFF1FEC0DAD
:1013A000FD1D8081918168E072E0BFDF892B09F427
:1013B00076C0E8012196CC0FDD1FCC0DDD1D8881A4
:1013C000998160E476E0B3DF892B39F0880C991CB1
:1013D000AA1CBB1C689480F80CC08881998168E0C5
:1013E00072E0A5DF892B09F45EC0880C991CAA1C49
:1013F000BB1CC8010296F7E0EF16F104E9F4880F70
:10140000991FF601E80FF91F8081918168E072E071
:101410008CDF892B09F44BC0F8013396EE0FFF1FC8
:10142000EC0DFD1D8081918160E970E180DF892BE9
:1014300009F441C0C80104962FEFE21AF20A8C01A8
:1014400080E1E816F1040CF4A7CF000F111FF6019C
:10145000E00FF11F8081918168E072E066DF892BE7
:1014600071F180E290E0F301918780878482958218
:10147000A682B7828BE090E09183808361E070E088
:1014800080E090E01FC060E070E0CB011BC060E036
:1014900070E0CB0117C060E070E0CB0113C060E0EA
:1014A00070E0CB010FC060E070E0CB010BC060E0EA
:1014B00070E0CB0107C060E070E0CB0103C060E0EA
:1014C00070E0CB01DF91CF911F910F91FF90EF90D2
:1014D000DF90CF90BF90AF909F908F907F906F9054
:1014E00008956F927F928F929F92AF92BF92CF9208
:1014F000DF92EF92FF920F931F93CF93DF933C0104
:10150000FC01C284D384F6018281938168E273E294
:101510000CDF892B09F489C08091B9029091BA023D
:10152000049719F5F601848195816AEC78E0FFDE75
:10153000892BD9F0F6018681978160E372E0F5DEB0
:10154000892B99F0F301118610868FEF9FEFDC0154
:1015500084839583A683B78381E090E09183808321
:1015600061E070E080E090E073C08091B9029091FA
:10157000BA028434910508F45CC0F6018481958137
:1015800064E971E1D4DE892B09F457C003E010E06F
:10159000812C912C5401E12CF12C31C0F801EE0F7B
:1015A000FF1FEC0DFD1D8081918160E372E0BDDEC7
:1015B000892B09F446C0E8012196CC0FDD1FCC0D24
:1015C000DD1D8881998160E476E0B1DE892B39F0F8
:1015D000880C991CAA1CBB1C689480F80BC08881DD
:1015E000998160E372E0A3DE892B79F1880C991C64
:1015F000AA1CBB1C0E5F1F4FFFEFEF1AFF0A80E211
:10160000E816F1045CF280E290E0F30191878087B4
:1016100084829582A682B78281E090E09183808364
:1016200061E070E080E090E013C060E070E0CB012A
:101630000FC060E070E0CB010BC060E070E0CB0158
:1016400007C060E070E0CB0103C060E070E0CB0158
:10165000DF91CF911F910F91FF90EF90DF90CF908E
:10166000BF90AF909F908F907F906F9008958F92D2
:101670009F92AF92BF92CF92DF92EF92FF920F9321
:101680001F93CF93DF932091B9023091BA022A3190
:10169000310508F481C0FC01E284F384F701208164
:1016A0003181243F314098F4FC01118610864FEFC0
:1016B0005FEFBA01448355836683778329E030E086
:1016C0003183208361E070E080E090E070C06C01C5
:1016D000F7018281938160E679E027DE892B09F4A6
:1016E0005FC002E010E0812C912C54012BC0F80166
:1016F000EE0FFF1FEE0DFF1D8081918168E572E006
:1017000016DE892B41F1CC0FDD1FCE0DDF1D888148
:10171000998160EB74E009DE892B39F0880C991C03
:10172000AA1CBB1C689480F80BC08881998168E56D
:1017300072E0FBDD892BC1F1880C991CAA1CBB1C33
:101740000E5F1F4FE80121968091B9029091BA0275
:10175000C817D90760F201501109C80199230CF488
:10176000019695958795F601918780870C9734F4BB
:101770001186108660E070E0CB0119C0F60184820A
:101780009582A682B78282E090E09183808361E0B7
:1017900070E080E090E00BC060E070E0CB0107C03B
:1017A00060E070E0CB0103C060E070E0CB01DF914E
:1017B000CF911F910F91FF90EF90DF90CF90BF904E
:1017C000AF909F908F9008958F929F92AF92BF920B
:1017D000CF92DF92EF92FF920F931F93CF93DF93FD
:1017E0002091B9023091BA022A31310508F48AC039
:1017F000FC01E284F384F7012081318120323340FF
:1018000098F4FC01118610864FEF5FEFBA01448314
:1018100055836683778329E030E03183208361E05C
:1018200070E080E090E07DC06C01F70182819381DF
:101830006CEA7DE07ADD892B09F468C0F7018481C8
:1018400095816CEA7DE071DD892B09F463C003E0CA
:1018500010E0812C912C54012BC0F801EE0FFF1FDA
:10186000EE0DFF1D8081918166EB73E060DD892BB9
:1018700041F1CC0FDD1FCE0DDF1D8881998160E61F
:1018800079E053DD892B39F0880C991CAA1CBB1C0C
:10189000689480F80BC0888199816CEB72E045DD1B
:1018A000892BE1F1880C991CAA1CBB1C0E5F1F4FF1
:1018B000E80121968091B9029091BA02C817D90720
:1018C00060F201501109C80199230CF40196959515
:1018D0008795F601918780870C9734F411861086DE
:1018E00060E070E0CB011DC0F60184829582A68283
:1018F000B78289E090E09183808361E070E080E0CE
:1019000090E00FC060E070E0CB010BC060E070E0E1
:10191000CB0107C060E070E0CB0103C060E070E085
:10192000CB01DF91CF911F910F91FF90EF90DF904E
:10193000CF90BF90AF909F908F9008956F927F92BD
:101940008F929F92AF92BF92CF92DF92EF92FF92CF
:101950000F931F93CF93DF932091B9023091BA0276
:101960002232310508F46EC03C01FC01C284D384EC
:10197000F601828193816EE571E0D7DC892B09F451
:1019800065C002E010E0812C912C54012DC0E801CB
:10199000CC0FDD1FCC0DDD1D888199816EE977E0CC
:1019A000C4DC892B39F0880C991CAA1CBB1C6894D8
:1019B00080F80CC0888199816EEE72E0B6DC892BCC
:1019C00009F448C0880C991CAA1CBB1CF701EE0F37
:1019D000FF1FEC0DFD1D808191816EE571E0A7DC9C
:1019E000892B71F00E5F1F4F7801FFEFEF1AFF0A8E
:1019F0008091B9029091BA02E816F90640F201C04E
:101A0000870101501109C80199230CF4019695959D
:101A10008795F30191878087409734F4118610866B
:101A200060E070E0CB0119C0F30184829582A68248
:101A3000B7828AE090E09183808361E070E080E08B
:101A400090E00BC060E070E0CB0107C060E070E0A8
:101A5000CB0103C060E070E0CB01DF91CF911F911B
:101A60000F91FF90EF90DF90CF90BF90AF909F903D
:101A70008F907F906F9008954F925F926F927F92B8
:101A8000AF92BF92CF92DF92EF92FF920F931F938C
:101A9000CF93DF9300D000D0CDB7DEB721E030E0A8
:101AA0003A8329831C821B82FC012485358512160A
:101AB00013060CF0AAC08C01E284F384F701828142
:101AC00093816AE67AE031DC892B09F4A2C082E0D6
:101AD00090E09A838983F7018481958169E773E0B7
:101AE00026DC892B09F499C083E090E09A838983EE
:101AF0002CEB31E0AE014D5F5F4FBE016F5F7F4F5A
:101B0000C801F1DA019709F08CC02CEB31E0AE018D
:101B10004D5F5F4FBE016F5F7F4FC801E4DA892BD5
:101B200009F083C0E12CF12C412C512C320155C01D
:101B30002CEB31E0AE014D5F5F4FBE016F5F7F4F19
:101B4000C801D1DA5C01F3E0EF16F10471F42CEB7B
:101B500031E0AE014D5F5F4FBE016F5F7F4FC80147
:101B6000C2DAA816B90609F064C02CEB31E0AE0168
:101B70004D5F5F4FBE016F5F7F4FC801B4DA6C01EC
:101B800083E0E816F10471F42CEB31E0AE014D5F17
:101B90005F4FBE016F5F7F4FC801A5DAC816D90637
:101BA00009F04BC0E1E0AE16B10451F4C114D10408
:101BB00039F4440C551C661C771C689440F80AC024
:101BC000AB28F9F5CA94CD2809F03FC0440C551C48
:101BD000661C771C8FEFE81AF80AF8012485358512
:101BE00089819A81821793070CF4A2CFF186E0864F
:101BF000448255826682778284E090E0918380837C
:101C000061E070E080E090E023C060E070E0CB0134
:101C10001FC060E070E0CB011BC060E070E0CB0152
:101C200017C060E070E0CB0113C060E070E0CB0152
:101C30000FC060E070E0CB010BC060E070E0CB0152
:101C400007C060E070E0CB0103C060E070E0CB0152
:101C50000F900F900F900F90DF91CF911F910F91E8
:101C6000FF90EF90DF90CF90BF90AF907F906F90FC
:101C70005F904F9008956F927F928F929F92AF9254
:101C8000BF92CF92DF92EF92FF920F931F93CF9369
:101C9000DF934C01FC0102851385F8018281938159
:101CA0006EEA7DE042DB892B09F49AC0F801848159
:101CB000958166ED76E039DB892B09F495C0612CBE
:101CC000712CC3E0D0E0C12CD12C760135C05E016F
:101CD000FFEFAF1ABF0AFE01EE0FFF1FE00FF11F6B
:101CE0008081918166EF71E020DB892B09F480C04F
:101CF000AA0CBB1CA00EB11EF501808191816CED78
:101D000074E015DB892B39F0CC0CDD1CEE1CFF1CBC
:101D10006894C0F80DC0F5018081918160E971E09F
:101D200006DB892B09F468C0CC0CDD1CEE1CFF1C03
:101D30002296FFEF6F1A7F0A80E1681671043CF269
:101D4000F401D382C282612C712C34C05E01FFEF9A
:101D5000AF1ABF0AFE01EE0FFF1FE00FF11F8081D7
:101D6000918166EF71E0E1DA892B09F449C0AA0C90
:101D7000BB1CA00EB11EF501808191816CED74E059
:101D8000D6DA892B39F0CC0CDD1CEE1CFF1C6894D4
:101D9000C0F80CC0F5018081918160E971E0C7DA7B
:101DA000892B91F1CC0CDD1CEE1CFF1C2296FFEF61
:101DB0006F1A7F0A80E26816710444F2F401C4824B
:101DC000D582E682F78287E090E09183808380E38A
:101DD00090E09187808761E070E080E090E017C03C
:101DE00060E070E0CB0113C060E070E0CB010FC099
:101DF00060E070E0CB010BC060E070E0CB0107C099
:101E000060E070E0CB0103C060E070E0CB01DF91E7
:101E1000CF911F910F91FF90EF90DF90CF90BF90E7
:101E2000AF909F908F907F906F9008956F927F9268
:101E30008F929F92AF92BF92CF92DF92EF92FF92DA
:101E40000F931F93CF93DF938C018091B9029091F0
:101E5000BA02829771F5F801C285D3858A819B8188
:101E600068E572E062DA892B21F1E091B902F09124
:101E7000BA02E150F048EE0FFF1FEC0FFD1F80810A
:101E8000918168E572E051DA892B99F0F8011186A9
:101E900010868FEF9FEFDC0184839583A683B78341
:101EA00088E090E09183808361E070E080E090E0E2
:101EB00090C0F801C284D384F6018281938160E4EA
:101EC0007FE133DA892B09F46DC08091B9029091DA
:101ED000BA02819708F46AC0F6018481958160EAAC
:101EE0007FE025DA892B09F465C0C3E0D0E0812CBE
:101EF000912C5401612C712C34C0FE01EE0FFF1F98
:101F0000EC0DFD1D8081918168E572E00EDA892B70
:101F100009F454C07E01FFEFEF1AFF0AEE0CFF1C1C
:101F2000EC0CFD1CF7018081918160E476E0FFD923
:101F3000892B39F0880C991CAA1CBB1C689480F86A
:101F40000CC0F7018081918166E272E0F0D9892BA3
:101F5000C9F1880C991CAA1CBB1C2296FFEF6F1AB2
:101F60007F0A80E16816710444F2CC0FDD1FCC0DAE
:101F7000DD1D8881998168E572E0D7D9892B31F11F
:101F800080E190E0F8019187808784829582A68223
:101F9000B78288E090E09183808361E070E080E028
:101FA00090E017C060E070E0CB0113C060E070E02B
:101FB000CB010FC060E070E0CB010BC060E070E0CF
:101FC000CB0107C060E070E0CB0103C060E070E0CF
:101FD000CB01DF91CF911F910F91FF90EF90DF9098
:101FE000CF90BF90AF909F908F907F906F9008950B
:101FF000CF92DF92EF92FF920F931F93CF93DF93D5
:102000006B017C018A0110926E0086E20E947107CA
:1020100088E293E20E945E0784E991E10E946C07E6
:10202000C0E0D0E018C0FF204CF480E392E00E94B2
:102030005E0780E496E00E946C0708C080E392E0AF
:102040000E945E0780E392E00E946C07CC0CDD1CCE
:10205000EE1CFF1C2196C017D1072CF380E392E001
:102060000E945E0780E090E00E946C07DF91CF91B4
:102070001F910F91FF90EF90DF90CF900895CF9236
:10208000DF92EF92FF920F931F93CF93DF936B0139
:102090007C01EA0188E20E94710710926E0080E6DE
:1020A00099E00E945E0788E592E00E946C0780E25A
:1020B00090E08C1B9D0B04C0CC0CDD1CEE1CFF1CA7
:1020C0008A95D2F700E010E019C0FF204CF480EBB5
:1020D00094E00E945E0788E592E00E946C0708C0C9
:1020E00088E592E00E945E0788E592E00E946C0716
:1020F000CC0CDD1CEE1CFF1C0F5F1F4F0C171D07C7
:1021000024F3DF91CF911F910F91FF90EF90DF901B
:10211000CF900895CF92DF92EF92FF920F931F938B
:10212000CF93DF936B017C01EA0184E20E94710787
:1021300010926E0080E290E08C1B9D0B04C0CC0CD2
:10214000DD1CEE1CFF1C8A95D2F789E793E00E9404
:102150005E0789E793E00E946C0789E793E00E949D
:102160005E0700E010E019C0FF204CF489E793E01F
:102170000E946C0789E793E00E945E0708C089E728
:1021800093E00E945E0789E793E00E946C07CC0C05
:10219000DD1CEE1CFF1C0F5F1F4F0C171D0724F3E7
:1021A00080E090E00E946C07DF91CF911F910F912A
:1021B000FF90EF90DF90CF900895EDEEF1E0118267
:1021C00082E080831092BA021092B9028AB18F77AE
:1021D0008AB9F8940E9427070E94250778940895E9
:1021E0000E94250789B1282F221F2227221FEDEEEA
:1021F000F1E0828193810196938382838091B90279
:102200009091BA028436910518F085E08093ED0133
:102210008091ED018330D1F118F4823041F00895BE
:10222000843009F453C0853009F47BC0089521300F
:1022300009F07DC08091EF019091F0018436910505
:1022400028F41092F0011092EF010895ADEEB1E084
:10225000E9EBF2E011821082808191819C012F5F75
:102260003F4F3183208312962D913C911397FC01AF
:102270003296EE0FFF1FE351FE4F318320831396FA
:102280001C921E92129783E08C93089521114FC0E7
:10229000ADEEB1E0E9EBF2E0808191819C012F5F2E
:1022A0003F4F3183208312962D913C911397FC016F
:1022B0003296EE0FFF1FE351FE4F318320831396BA
:1022C0001C921E92129784E08C9308952130F1F4B1
:1022D000ADEEB1E0E9EBF2E0808191819C012F5FEE
:1022E0003F4F3183208312962D913C911397FC012F
:1022F0003296EE0FFF1FE351FE4F3183208313967A
:102300001C921E92129783E08C9308958091EF01A6
:102310009091F0018536910550F085E08093ED01B4
:102320000895213021F41092F0011092EF010895E8
:1023300082E08093ED011092BA021092B9020895E2
:10234000CF93DF932091B9023091BA02FC01358717
:10235000248721EF31E0338722872091ED0125305A
:1023600009F046C0EC010E949909672B682B692B84
:1023700009F041C0CE01B5D8672B682B692B09F055
:102380003DC0CE0174D9672B682B692B09F039C089
:10239000CE011ADA672B682B692BB1F5CE01CEDAA4
:1023A000672B682B692B99F5CE010E94DB08672B00
:1023B000682B692B79F5CE015FDB672B682B692BC6
:1023C00061F5CE0158DC672B682B692B49F5CE01EE
:1023D0002DDD672B682B692B31F5CE010E94C207DA
:1023E000672B682B692B11F5A3DF80E090E020C0FC
:1023F00080E090E01DC081E090E01AC081E090E0B4
:1024000017C081E090E014C081E090E011C081E04D
:1024100090E00EC081E090E00BC081E090E008C049
:1024200081E090E005C081E090E002C081E090E0B2
:10243000DF91CF910895CF93882331F08091E80107
:1024400081608093E80105C08091E8018E7F8093D0
:10245000E8018091E80182608093E8016091E801E1
:1024600087E00ED262E087E057D200C064E087E0E8
:102470006ED2882311F0C0E001C0C0E165E087E0C2
:1024800066D2811101C0C06266E087E060D281112E
:1024900001C0C06467E087E05AD2811101C0C06802
:1024A00062E087E03CD200C062E087E035D200C045
:1024B00064E087E04CD2811101C0C16065E087E033
:1024C00046D2811101C0C26066E087E040D281112E
:1024D00001C0C46067E087E03AD2811101C0C860E2
:1024E00062E087E01CD28C2FCF91089580E0A3DFBB
:1024F0008823E4F384E090E00197F1F780E09BCF3C
:10250000089562E087E008D200C062E087E007C279
:102510000895CF93C82F662331F08091E801816040
:102520008093E80105C08091E8018E7F8093E801E7
:102530008091E8018D7F8093E8016091E80187E058
:102540009FD18091E8018F778093E8018091E80125
:102550008F7B8093E8018091E8018F7D8093E80173
:102560008091E8018F7E8093E801CC232CF4809148
:10257000E80180688093E801C6FF05C08091E8010A
:1025800080648093E801C5FF05C08091E801806206
:102590008093E801C4FF05C08091E80180618093C9
:1025A000E8016091E80187E06BD1ABDF8091E80141
:1025B0008F778093E8018091E8018F7B8093E80119
:1025C0008091E8018F7D8093E8018091E8018F7E02
:1025D0008093E801C3FF05C08091E8018068809383
:1025E000E801C2FF05C08091E80180648093E801A2
:1025F000C1FF05C08091E80180628093E801C0FFBF
:1026000005C08091E80180618093E8016091E80154
:1026100087E036D176DF8091E80180618093E80120
:102620008091E80180628093E8018091E8018064F4
:102630008093E8018091E80180688093E8016091CF
:10264000E80187E01DD1CF910895CF93C82F4EDFC9
:1026500060E08C2F5EDFCF910895611103C0805838
:10266000F4CF08958054F1CF089581E0EECF08951E
:10267000882331F08091E801877F8093E80105C0CD
:102680008091E80188608093E8016091E80187E02B
:10269000F7C0089582E0D9CF0895CF93C82F26DFE1
:1026A000CA3041F4803410F480E401C080E08058E6
:1026B000CCDF03C061E08C2F2CDFCF910895CF9346
:1026C000DF93FC0102C0E9DFFE01EF01219680816A
:1026D0008111F9CFDF91CF9108951F93CF93DF93AD
:1026E000182FBDD01092E8016091E80187E0C8D0B2
:1026F00080E09DE70197F1F78091E8018062809387
:10270000E8018091E80180618093E8016091E8012F
:1027100087E0B6D0F6DE80E097E20197F1F7F1DED0
:10272000C0E8D0E0CE010197F1F7EBDECE010197D2
:10273000F1F78091E8018F7E8093E8016091E801D4
:1027400087E09ED0DEDE2197F1F788E27EDF88E029
:102750007CDF8BDF86E079DF812F77DFDF91CF9120
:102760001F910895CF93DF9300D0CDB7DEB78AB124
:1027700080648AB904D178948CE0AFDF80E078DFA0
:1027800089E193E09093EC018093EB01CE010196F7
:102790000CD1CE01019611D1039728F00E94EB02D3
:1027A000CE01019602D180910001882341F0E09191
:1027B000EB01F091EC0109951092000105C0E09148
:1027C000EB01F091EC0109950E9467050E94C60299
:1027D000E0CF1F920F920FB60F9211242F933F93C9
:1027E0004F935F936F937F938F939F93AF93BF9319
:1027F000EF93FF93F5DCFF91EF91BF91AF919F9124
:102800008F917F916F915F914F913F912F910F9099
:102810000FBE0F901F9018951F920F920FB60F9238
:1028200011242F933F934F935F936F937F938F93D5
:102830009F93AF93BF93EF93FF93ADD0FF91EF9131
:10284000BF91AF919F918F917F916F915F914F91C8
:102850003F912F910F900FBE0F901F9018950E94DF
:10286000D50683E08A95F1F7000080E006C0E82FE6
:10287000F0E0E554FD4F10828F5F8830C0F308957B
:10288000CF93883088F4C62FE82FF0E0E554FD4F51
:102890006083805E880F0E94DB068C2F0E940907F0
:1028A0000E94010780E001C08FEFCF910895CF9380
:1028B000DF93883058F5683058F5282F30E0F9015B
:1028C000E554FD4F9081442349F0C1E0D0E002C0BF
:1028D000CC0FDD1F6A95E2F7C92B09C0C1E0D0E03B
:1028E00002C0CC0FDD1F6A95E2F7C095C923F9013C
:1028F000E554FD4FC083805E880F0E94DB068C2F5D
:102900000E9409070E94010780E003C08FEF01C009
:102910008FEFDF91CF91089541E0C9CF089540E056
:10292000C6CF0895CF93883070F490E08096880FDA
:10293000991F81600E94DB060E941B07C82FC0956B
:102940000E94010701C0CFEF8C2FCF910895CF9344
:10295000883080F4683080F4C62FE4DF8F3F69F060
:10296000082E000C990B02C095958795CA95E2F741
:10297000817003C08FEF01C08FEFCF9108958EE477
:102980008093B30082E08093B00097E09093B10011
:102990008093700008958091E9019091EA01019679
:1029A0009093EA018093E90108952091E901309123
:1029B000EA01FC01318320830895FC0120813181EB
:1029C0008091E9019091EA018217930748F4809180
:1029D000E9019091EA01A901481B590BCA01089528
:1029E0008091E9019091EA01821B930B0895505860
:1029F000BB27AA270ED075C166D130F06BD120F06D
:102A000031F49F3F11F41EF45BC10EF4E095E7FB37
:102A100051C1E92F77D180F3BA1762077307840792
:102A2000950718F071F49EF58FC10EF4E0950B2E0A
:102A3000BA2FA02D0B01B90190010C01CA01A00110
:102A40001124FF27591B99F0593F50F4503E68F16B
:102A50001A16F040A22F232F342F4427585FF3CFAC
:102A6000469537952795A795F0405395C9F77EF47D
:102A70001F16BA0B620B730B840BBAF09150A1F0C6
:102A8000FF0FBB1F661F771F881FC2F70EC0BA0F4C
:102A9000621F731F841F48F4879577956795B795D4
:102AA000F7959E3F08F0B3CF9395880F08F09927CC
:102AB000EE0F979587950895D9D008F481E0089591
:102AC0000CD00FC107D140F0FED030F021F45F3FB1
:102AD00019F0F0C0511139C1F3C014D198F3992302
:102AE000C9F35523B1F3951B550BBB27AA276217D2
:102AF0007307840738F09F5F5F4F220F331F441F17
:102B0000AA1FA9F333D00E2E3AF0E0E830D091504E
:102B10005040E695001CCAF729D0FE2F27D0660F3B
:102B2000771F881FBB1F261737074807AB07B0E87A
:102B300009F0BB0B802DBF01FF2793585F4F2AF090
:102B40009E3F510568F0B6C000C15F3FECF3983E70
:102B5000DCF3869577956795B795F7959F5FC9F7ED
:102B6000880F911D9695879597F90895E1E0660F76
:102B7000771F881FBB1F621773078407BA0720F0EF
:102B8000621B730B840BBA0BEE1F88F7E095089558
:102B900004D06894B111D9C00895BCD088F09F5773
:102BA00090F0B92F9927B751A0F0D1F0660F771F99
:102BB000881F991F1AF0BA95C9F712C0B13081F079
:102BC000C3D0B1E00895C0C0672F782F8827B85FC1
:102BD00039F0B93FCCF3869577956795B395D9F7DA
:102BE0003EF490958095709561957F4F8F4F9F4FE4
:102BF0000895E89409C097FB3EF4909580957095F0
:102C000061957F4F8F4F9F4F9923A9F0F92F96E938
:102C1000BB279395F695879577956795B795F111AD
:102C2000F8CFFAF4BB0F11F460FF1BC06F5F7F4F4A
:102C30008F4F9F4F16C0882311F096E911C077235C
:102C400021F09EE8872F762F05C0662371F096E865
:102C5000862F70E060E02AF09A95660F771F881F34
:102C6000DAF7880F9695879597F90895990F0008D8
:102C7000550FAA0BE0E8FEEF16161706E807F9074E
:102C8000C0F012161306E407F50798F0621B730BE9
:102C9000840B950B39F40A2661F0232B242B252B6A
:102CA00021F408950A2609F4A140A6958FEF811D0D
:102CB000811D089597F99F6780E870E060E00895AE
:102CC0009FEF80EC089500240A9416161706180644
:102CD0000906089500240A94121613061406050620
:102CE0000895092E0394000C11F4882352F0BB0FB1
:102CF00040F4BF2B11F460FF04C06F5F7F4F8F4F14
:102D00009F4F089557FD9058440F551F59F05F3F4E
:102D100071F04795880F97FB991F61F09F3F79F0FD
:102D200087950895121613061406551FF2CF46957F
:102D3000F1DF08C0161617061806991FF1CF869501
:102D40007105610508940895E894BB2766277727E5
:102D5000CB0197F908950BD0C4CFB5DF28F0BADFC7
:102D600018F0952309F0A6CFABCF1124EECFCADF20
:102D7000A0F3959FD1F3950F50E0551F629FF0018E
:102D8000729FBB27F00DB11D639FAA27F00DB11DE7
:102D9000AA1F649F6627B00DA11D661F829F222770
:102DA000B00DA11D621F739FB00DA11D621F839FF7
:102DB000A00D611D221F749F3327A00D611D231FCD
:102DC000849F600D211D822F762F6A2F11249F571B
:102DD00050408AF0E1F088234AF0EE0FFF1FBB1F3E
:102DE000661F771F881F91505040A9F79E3F5105DD
:102DF00070F060CFAACF5F3FECF3983EDCF386958E
:102E000077956795B795F795E7959F5FC1F7FE2B87
:102E1000880F911D9695879597F90895DB018F93FB
:102E20009F9311D0BF91AF91A29F800D911DA39F41
:102E3000900DB29F900D11240895EE0FFF1F059085
:102E4000F491E02D099409D0A59F900DB49F900DA9
:102E5000A49F800D911D11240895A29FB001B39FDE
:102E6000C001A39F700D811D1124911DB29F700D93
:102E7000811D1124911D0895AEE0B0E0E1E4F7E179
:102E8000C4C20D891E8986E08C831A8309838FEF63
:102E90009FE79E838D83AE01475E5F4F6F89788D7C
:102EA000CE01019608D0EF81F885E00FF11F108266
:102EB0002E96E4E0C6C2ABE0B0E0E0E6F7E197C2F0
:102EC0006C017B018A01FC0117821682838181FFDC
:102ED000BFC1CE0101963C01F6019381F70193FD3C
:102EE000859193FF81917F01882309F4ADC18532DB
:102EF00039F493FD859193FF81917F01853221F40F
:102F0000B60190E0C0D1E8CF912C212C312CFFE10B
:102F1000F315D8F08B3279F038F4803279F08332BF
:102F2000A1F4232D20611DC08D3261F0803369F43E
:102F3000232D216016C0832D8260382EE32DE4609E
:102F40003E2E2AC0F32DF8601DC037FC2DC020EDA9
:102F5000280F2A3040F08E32B9F436FC75C1232D8B
:102F60002064322E19C036FE06C08AE0989E200DDD
:102F70001124922E11C0EAE02E9E200D1124222E43
:102F8000F32DF0623F2E08C08C3621F4832D80682B
:102F9000382E02C0883641F4F70193FD859193FFE6
:102FA00081917F018111B3CF982F9F7D95549330EC
:102FB00028F40C5F1F4F9FE399830DC0833631F0D7
:102FC000833771F0833509F055C020C0F801808146
:102FD00089830E5F1F4F88248394912C530112C064
:102FE0002801F2E04F0E511CF801A080B18036FE9E
:102FF00003C0692D70E002C06FEF7FEFC50138D1CB
:103000004C018201F32DFF773F2E15C0280122E0ED
:10301000420E511CF801A080B18036FE03C0692D1C
:1030200070E002C06FEF7FEFC50117D14C01F32DA7
:10303000F0683F2E820133FC19C0822D90E0881683
:103040009906A0F4B60180E290E01DD12A94F5CF54
:10305000F50137FC859137FE81915F01B60190E063
:1030600012D121102A9421E0821A9108811491042E
:1030700079F7E1C0843611F0893639F5F80137FE69
:1030800007C060817181828193810C5F1F4F08C0EE
:1030900060817181072E000C880B990B0E5F1F4F0A
:1030A000F32DFF763F2E97FF09C090958095709580
:1030B00061957F4F8F4F9F4FF0683F2E2AE030E0A1
:1030C000A3011DD1882E861844C0853731F4232DE5
:1030D0002F7EB22E2AE030E025C0932D997FB92EA5
:1030E0008F36C1F018F4883579F0AEC0803719F00A
:1030F000883721F0A9C0E92FE061BE2EB4FE0DC0D3
:10310000FB2DF460BF2E09C034FE0AC0292F2660B3
:10311000B22E06C028E030E005C020E130E002C059
:1031200020E132E0F801B7FE07C060817181828141
:1031300093810C5F1F4F06C06081718180E090E039
:103140000E5F1F4FA301DBD0882E8618FB2DFF7763
:103150003F2E36FE0DC0232D2E7FA22E891458F44B
:1031600034FE0BC032FC09C0832D8E7EA82E05C014
:10317000B82CA32C03C0B82C01C0B92CA4FE0FC0DE
:10318000FE01E80DF11D8081803321F49A2D997E96
:10319000A92E09C0A2FE06C0B394B39404C08A2D20
:1031A000867809F0B394A3FC10C0A0FE06C0B21448
:1031B00080F4280C922C9B180DC0B21458F4B60160
:1031C00080E290E060D0B394F8CFB21418F42B18DA
:1031D00002C0982C212CA4FE0FC0B60180E390E021
:1031E00052D0A2FE16C0A1FC03C088E790E002C046
:1031F00088E590E0B6010CC08A2D867851F0A1FEDA
:1032000002C08BE201C080E2A7FC8DE2B60190E033
:103210003AD0891430F4B60180E390E034D09A9427
:10322000F8CF8A94F301E80DF11D8081B60190E09A
:103230002AD08110F6CF222009F44ECEB60180E2CA
:1032400090E021D02A94F7CFF6018681978102C0C1
:103250008FEF9FEF2B96E2E1E6C0FC0105906150F5
:1032600070400110D8F7809590958E0F9F1F08959C
:10327000FC016150704001900110D8F78095909545
:103280008E0F9F1F08950F931F93CF93DF93FB0122
:10329000238121FD03C08FEF9FEF2CC022FF16C0BA
:1032A00046815781248135814217530744F4A08118
:1032B000B1819D012F5F3F4F318320838C93268105
:1032C00037812F5F3F4F3783268314C08B01EC017A
:1032D000FB010084F185E02D0995892BE1F6D801E9
:1032E00016968D919C911797019617969C938E93A5
:1032F0001697CE01DF91CF911F910F910895FA019A
:10330000AA27283051F1203181F1E8946F936E7F24
:103310006E5F7F4F8F4F9F4FAF4FB1E03ED0B4E015
:103320003CD0670F781F891F9A1FA11D680F791F56
:103330008A1F911DA11D6A0F711D811D911DA11D67
:1033400020D009F468943F912AE0269F1124301977
:10335000305D3193DEF6CF010895462F4770405D12
:103360004193B3E00FD0C9F7F6CF462F4F70405DC1
:103370004A3318F0495D31FD4052419302D0A9F71C
:10338000EACFB4E0A6959795879577956795BA9516
:10339000C9F700976105710508959B01AC010A2EDC
:1033A00006945795479537952795BA95C9F7620FB3
:1033B000731F841F951FA01D0895F999FECF92BD1C
:1033C00081BDF89A992780B50895262FF999FECFE7
:1033D00092BD81BDF89A019700B4021639F01FBA68
:1033E00020BD0FB6F894FA9AF99A0FBE08952F925D
:1033F0003F924F925F926F927F928F929F92AF9285
:10340000BF92CF92DF92EF92FF920F931F93CF93D1
:10341000DF93CDB7DEB7CA1BDB0B0FB6F894DEBF68
:103420000FBECDBF09942A88398848885F846E848E
:103430007D848C849B84AA84B984C884DF80EE80D8
:10344000FD800C811B81AA81B981CE0FD11D0FB6E1
:10345000F894DEBF0FBECDBFED010895F894FFCF05
:1034600001506C6179005370792026205265636F9A
:10347000726400437573746F6D00507265737320CE
:10348000302D3920746F0073656E6420736176652A
:103490006420636F646521002020202053617665DD
:1034A000642021202020202000537079696E672E2F
:1034B0002E2E20507265737300302D3920746F20CA
:1034C00073617665202100547970653A00436D641C
:1034D0003A00416464723A002573782530325820EE
:1034E0002573782530325800526570656174206309
:1034F0006F646500534F4E590025732045783A7824
:0E3500002530325800554E4B4E4F574E0000AE
:00000001FF
