S01400004861636B495252656D6F74652E7372656392
S113000033C0000043C0000041C000003FC00000F6
S11300103DC000003BC0000039C0000037C00000F4
S113002035C0000033C0000031C000002FC0000004
S11300302DC000002BC000000C94380A27C000001B
S113004025C0000023C0000021C000001FC0000024
S11300501DC000001BC0000019C0000017C0000034
S113006015C0000013C0000011241FBECFEFD8E05C
S1130070DEBFCDBF21E0A0E0B1E001C01D92AE3CE7
S1130080B207E1F70E94180A0C949A0CB9CF16BC77
S1130090089514BC8CE085BD82E080936E0083E0FB
S11300A087BD08958F929F92AF92BF92CF92DF92B5
S11300B0EF92FF92CF93DF93EC0180E090E00E94F7
S11300C05D0B4B015C01BE0180E090E00E945D0B82
S11300D06B017C012DEC3CEC4CE45FE30E940F0CC3
S11300E09B01AC01C501B4010E94C00A88239CF0A5
S11300F02DEC3CEC4CE45FE3C501B4010E940F0C11
S11301009B01AC01C701B6010E94C00A882334F4E4
S113011082E090E005C080E090E002C081E090E0E1
S1130120DF91CF91FF90EF90DF90CF90BF90AF9091
S11301309F908F900895AF92BF92CF92DF92EF92EB
S1130140FF920F931F93CF93DF93FC01A484B58494
S1130150F6E0AF16B1040CF449C0EC0101E010E084
S11301600F2EF5ECCF2EFDE9DF2EFCE1EF2EF1E8AA
S1130170FF2EF02D25C08A859B85F8013296EE0F5F
S1130180FF1FE80FF91F60817181F801EE0FFF1F57
S1130190E80FF91F8081918185DFFC01A701960199
S11301A063E971E080E091E00E94720C6F01FF0F3F
S11301B0EE08FF08C626D726E826F9260F5F1F4F4C
S11301C0C80102968A159B05B4F2CC82DD82EE82C8
S11301D0FF8280E290E0998788878FEF9FEF998371
S11301E0888361E070E080E090E003C060E070E04C
S11301F0CB01DF91CF911F910F91FF90EF90DF9092
S1130200CF90BF90AF900895CF92DF92EF92FF927C
S1130210CF93DF93EC01072E000C880B990B0E94FF
S11302205F0B6B017C0120E030E040E45FE30E945F
S11302300F0C20E030E048E452E40E94C40A0E941B
S11302402C0BC617D707E4F020E030E040EA5FE368
S1130250C701B6010E940F0C20E030E048E452E4EC
S11302600E94C40A20E030E040E85FE30E945C0A98
S11302700E942C0B6C177D0734F480E090E005C0DD
S113028080E090E002C081E090E0DF91CF91FF90A8
S1130290EF90DF90CF900895AF92BF92CF92DF920C
S11302A0EF92FF920F931F93CF93DF93DB01ED91B6
S11302B0FC91EC01AC85BD85EA17FB070CF041C04D
S11302C0AA85BB85CF01880F991FA80FB91FAD90D0
S11302D0BC9081E0E0FF80E079018A01EB01C82E47
S11302E0D12CB901C50190DF892B99F4B701660FB0
S11302F0771FC50189DF892B79F4B701660F771F52
S11303006E0D7F1DC50180DF892BF1F023E030E005
S113031005C021E030E002C022E030E0F801808135
S113032091810196918380838217930784F01182CF
S11303301082888199810196998388838C2D9D2DC3
S113034008C080E090E005C08FEF9FEF02C08C2DC5
S11303509D2DDF91CF911F910F91FF90EF90DF9032
S1130360CF90BF90AF9008958F929F92AF92BF921B
S1130370CF92DF92EF92FF920F931F93CF93DF936D
S113038000D000D0CDB7DEB721E030E03A83298336
S11303901C821B822091CC013091CD012D3031057E
S11303A008F474C08C0129E733E0AE014D5F5F4F60
S11303B0BE016F5F7F4F70DF019709F06BC029E7C3
S11303C033E0AE014D5F5F4FBE016F5F7F4FC801E9
S11303D063DF892B09F062C029E733E0AE014D5F8A
S11303E05F4FBE016F5F7F4FC80156DF019709F071
S11303F059C0C12CD12C812C912C54012EC029E739
S113040033E0AE014D5F5F4FBE016F5F7F4FC801A8
S113041043DF7C0129E733E0AE014D5F5F4FBE014E
S11304206F5F7F4FC80138DFE114F10451F481306C
S1130430910539F4880C991CAA1CBB1C689480F89B
S113044009C0EA94EF2891F5892BA1F5880C991C31
S1130450AA1CBB1C8FEFC81AD80A2091CC0130917A
S1130460CD0189819A818217930748F2F801D186D8
S1130470C08684829582A682B78283E090E09183CD
S1130480808361E070E080E090E017C060E070E09D
S1130490CB0113C060E070E0CB010FC060E070E0FE
S11304A0CB010BC060E070E0CB0107C060E070E0FE
S11304B0CB0103C060E070E0CB010F900F900F9070
S11304C00F90DF91CF911F910F91FF90EF90DF90EC
S11304D0CF90BF90AF909F908F90089595CE089540
S11304E093CE08956F927F928F929F92AF92BF9214
S11304F0CF92DF92EF92FF920F931F93CF93DF93EC
S11305003C01FC01C284D384F6018281938168EFAB
S113051070E2E4DF892B09F48FC08091CC019091C3
S1130520CD01869708F48CC0F6018481958160E939
S113053070E1D6DF892B09F487C003E010E0812C39
S1130540912C5401E12CF12C54C0F801EE0FFF1F43
S1130550EC0DFD1D8081918168E072E0BFDF892B85
S113056009F476C0E8012196CC0FDD1FCC0DDD1D0A
S11305708881998160E476E0B3DF892B39F0880CB7
S1130580991CAA1CBB1C689480F80CC088819981B2
S113059068E072E0A5DF892B09F45EC0880C991C21
S11305A0AA1CBB1CC8010296F7E0EF16F104E9F49B
S11305B0880F991FF601E80FF91F8081918168E087
S11305C072E08CDF892B09F44BC0F8013396EE0FEF
S11305D0FF1FEC0DFD1D8081918160E970E180DFDA
S11305E0892B09F441C0C80104962FEFE21AF20ADC
S11305F08C0180E1E816F1040CF4A7CF000F111F61
S1130600F601E00FF11F8081918168E072E066DFFE
S1130610892B71F180E290E0F301918780878482D5
S11306209582A682B7828BE090E09183808361E01B
S113063070E080E090E01FC060E070E0CB011BC080
S113064060E070E0CB0117C060E070E0CB0113C044
S113065060E070E0CB010FC060E070E0CB010BC044
S113066060E070E0CB0107C060E070E0CB0103C044
S113067060E070E0CB01DF91CF911F910F91FF906B
S1130680EF90DF90CF90BF90AF909F908F907F902E
S11306906F9008956F927F928F929F92AF92BF92C4
S11306A0CF92DF92EF92FF920F931F93CF93DF933A
S11306B03C01FC01C284D384F6018281938168E207
S11306C073E20CDF892B09F489C08091CC019091ED
S11306D0CD01049719F5F601848195816AEC78E0DF
S11306E0FFDE892BD9F0F6018681978160E372E001
S11306F0F5DE892B99F0F301118610868FEF9FEFB9
S1130700DC0184839583A683B78381E090E09183A1
S1130710808361E070E080E090E073C08091CC0160
S11307209091CD018434910508F45CC0F601848174
S1130730958164E971E1D4DE892B09F457C003E0A3
S113074010E0812C912C5401E12CF12C31C0F801E2
S1130750EE0FFF1FEC0DFD1D8081918160E372E0BF
S1130760BDDE892B09F446C0E8012196CC0FDD1FBC
S1130770CC0DDD1D8881998160E476E0B1DE892BA2
S113078039F0880C991CAA1CBB1C689480F80BC017
S11307908881998160E372E0A3DE892B79F1880C6A
S11307A0991CAA1CBB1C0E5F1F4FFFEFEF1AFF0A18
S11307B080E2E816F1045CF280E290E0F3019187B4
S11307C0808784829582A682B78281E090E09183BB
S11307D0808361E070E080E090E013C060E070E04E
S11307E0CB010FC060E070E0CB010BC060E070E0B3
S11307F0CB0107C060E070E0CB0103C060E070E0B3
S1130800CB01DF91CF911F910F91FF90EF90DF907B
S1130810CF90BF90AF909F908F907F906F900895EE
S11308208F929F92AF92BF92CF92DF92EF92FF92FC
S11308300F931F93CF93DF932091CC013091CD017F
S11308402A31310508F481C0FC01E284F384F70104
S113085020813181243F314098F4FC0111861086B7
S11308604FEF5FEFBA01448355836683778329E0B2
S113087030E03183208361E070E080E090E070C07C
S11308806C01F7018281938160E679E027DE892B90
S113089009F45FC002E010E0812C912C54012BC0BC
S11308A0F801EE0FFF1FEE0DFF1D8081918168E5B9
S11308B072E016DE892B41F1CC0FDD1FCE0DDF1D5A
S11308C08881998160EB74E009DE892B39F0880C0A
S11308D0991CAA1CBB1C689480F80BC08881998160
S11308E068E572E0FBDD892BC1F1880C991CAA1C18
S11308F0BB1C0E5F1F4FE80121968091CC019091A3
S1130900CD01C817D90760F201501109C801992314
S11309100CF4019695958795F601918780870C973D
S113092034F41186108660E070E0CB0119C0F60142
S113093084829582A682B78282E090E0918380834C
S113094061E070E080E090E00BC060E070E0CB011B
S113095007C060E070E0CB0103C060E070E0CB0151
S1130960DF91CF911F910F91FF90EF90DF90CF9087
S1130970BF90AF909F908F9008958F929F92AF9267
S1130980BF92CF92DF92EF92FF920F931F93CF9378
S1130990DF932091CC013091CD012A31310508F447
S11309A08AC0FC01E284F384F70120813181203282
S11309B0334098F4FC01118610864FEF5FEFBA01C3
S11309C0448355836683778329E030E03183208331
S11309D061E070E080E090E07DC06C01F70182810D
S11309E093816CEA7DE07ADD892B09F468C0F70114
S11309F0848195816CEA7DE071DD892B09F463C003
S1130A0003E010E0812C912C54012BC0F801EE0F6F
S1130A10FF1FEE0DFF1D8081918166EB73E060DDA9
S1130A20892B41F1CC0FDD1FCE0DDF1D888199810B
S1130A3060E679E053DD892B39F0880C991CAA1CF7
S1130A40BB1C689480F80BC0888199816CEB72E0C0
S1130A5045DD892BE1F1880C991CAA1CBB1C0E5F97
S1130A601F4FE80121968091CC019091CD01C817C8
S1130A70D90760F201501109C80199230CF40196B9
S1130A8095958795F601918780870C9734F41186A4
S1130A90108660E070E0CB011DC0F601848295826F
S1130AA0A682B78289E090E09183808361E070E060
S1130AB080E090E00FC060E070E0CB010BC060E02C
S1130AC070E0CB0107C060E070E0CB0103C060E0E0
S1130AD070E0CB01DF91CF911F910F91FF90EF90C8
S1130AE0DF90CF90BF90AF909F908F9008956F92BA
S1130AF07F928F929F92AF92BF92CF92DF92EF92AA
S1130B00FF920F931F93CF93DF932091CC013091E9
S1130B10CD012232310508F46EC03C01FC01C284CF
S1130B20D384F601828193816EE571E0D7DC892B51
S1130B3009F465C002E010E0812C912C54012DC011
S1130B40E801CC0FDD1FCC0DDD1D888199816EE994
S1130B5077E0C4DC892B39F0880C991CAA1CBB1CD7
S1130B60689480F80CC0888199816EEE72E0B6DCDE
S1130B70892B09F448C0880C991CAA1CBB1CF701DA
S1130B80EE0FFF1FEC0DFD1D808191816EE571E07C
S1130B90A7DC892B71F00E5F1F4F7801FFEFEF1A6E
S1130BA0FF0A8091CC019091CD01E816F90640F23C
S1130BB001C0870101501109C80199230CF4019661
S1130BC095958795F30191878087409734F4118632
S1130BD0108660E070E0CB0119C0F3018482958235
S1130BE0A682B7828AE090E09183808361E070E01E
S1130BF080E090E00BC060E070E0CB0107C060E0F3
S1130C0070E0CB0103C060E070E0CB01DF91CF91D5
S1130C101F910F91FF90EF90DF90CF90BF90AF9016
S1130C209F908F907F906F9008954F925F926F92F4
S1130C307F92AF92BF92CF92DF92EF92FF920F9387
S1130C401F93CF93DF9300D000D0CDB7DEB721E060
S1130C5030E03A8329831C821B82FC01248535857C
S1130C60121613060CF0AAC08C01E284F384F70177
S1130C70828193816AE67AE031DC892B09F4A2C08F
S1130C8082E090E09A838983F7018481958169E702
S1130C9073E026DC892B09F499C083E090E09A8301
S1130CA089832CEB31E0AE014D5F5F4FBE016F5F76
S1130CB07F4FC801F1DA019709F08CC02CEB31E0C9
S1130CC0AE014D5F5F4FBE016F5F7F4FC801E4DA35
S1130CD0892B09F083C0E12CF12C412C512C3201D9
S1130CE055C02CEB31E0AE014D5F5F4FBE016F5F2D
S1130CF07F4FC801D1DA5C01F3E0EF16F10471F41F
S1130D002CEB31E0AE014D5F5F4FBE016F5F7F4F53
S1130D10C801C2DAA816B90609F064C02CEB31E0A8
S1130D20AE014D5F5F4FBE016F5F7F4FC801B4DA04
S1130D306C0183E0E816F10471F42CEB31E0AE01B0
S1130D404D5F5F4FBE016F5F7F4FC801A5DAC816C4
S1130D50D90609F04BC0E1E0AE16B10451F4C11458
S1130D60D10439F4440C551C661C771C689440F873
S1130D700AC0AB28F9F5CA94CD2809F03FC0440C49
S1130D80551C661C771C8FEFE81AF80AF8012485B5
S1130D90358589819A81821793070CF4A2CFF18655
S1130DA0E086448255826682778284E090E0918373
S1130DB0808361E070E080E090E023C060E070E058
S1130DC0CB011FC060E070E0CB011BC060E070E0AD
S1130DD0CB0117C060E070E0CB0113C060E070E0AD
S1130DE0CB010FC060E070E0CB010BC060E070E0AD
S1130DF0CB0107C060E070E0CB0103C060E070E0AD
S1130E00CB010F900F900F900F90DF91CF911F9116
S1130E100F91FF90EF90DF90CF90BF90AF907F90B5
S1130E206F905F904F9008956F927F928F929F92F0
S1130E30AF92BF92CF92DF92EF92FF920F931F93E4
S1130E40CF93DF934C01FC0102851385F801828165
S1130E5093816EEA7DE042DB892B09F49AC0F801A4
S1130E608481958166ED76E039DB892B09F495C0A0
S1130E70612C712CC3E0D0E0C12CD12C760135C09B
S1130E805E01FFEFAF1ABF0AFE01EE0FFF1FE00F76
S1130E90F11F8081918166EF71E020DB892B09F4D9
S1130EA080C0AA0CBB1CA00EB11EF50180819181EB
S1130EB06CED74E015DB892B39F0CC0CDD1CEE1CD9
S1130EC0FF1C6894C0F80DC0F5018081918160E930
S1130ED071E006DB892B09F468C0CC0CDD1CEE1C28
S1130EE0FF1C2296FFEF6F1A7F0A80E168167104D7
S1130EF03CF2F401D382C282612C712C34C05E01B5
S1130F00FFEFAF1ABF0AFE01EE0FFF1FE00FF11F44
S1130F108081918166EF71E0E1DA892B09F449C09F
S1130F20AA0CBB1CA00EB11EF501808191816CED51
S1130F3074E0D6DA892B39F0CC0CDD1CEE1CFF1CD6
S1130F406894C0F80CC0F5018081918160E971E07A
S1130F50C7DA892B91F1CC0CDD1CEE1CFF1C229608
S1130F60FFEF6F1A7F0A80E26816710444F2F401FD
S1130F70C482D582E682F78287E090E09183808301
S1130F8080E390E09187808761E070E080E090E00A
S1130F9017C060E070E0CB0113C060E070E0CB01EB
S1130FA00FC060E070E0CB010BC060E070E0CB01EB
S1130FB007C060E070E0CB0103C060E070E0CB01EB
S1130FC0DF91CF911F910F91FF90EF90DF90CF9021
S1130FD0BF90AF909F908F907F906F9008956F9285
S1130FE07F928F929F92AF92BF92CF92DF92EF92B5
S1130FF0FF920F931F93CF93DF938C018091CC01C9
S11310009091CD01829771F5F801C285D3858A81CB
S11310109B8168E572E062DA892B21F1E091CC01D1
S1131020F091CD01E150F048EE0FFF1FEC0FFD1FD2
S11310308081918168E572E051DA892B99F0F80199
S1131040118610868FEF9FEFDC0184839583A6833E
S1131050B78388E090E09183808361E070E080E072
S113106090E090C0F801C284D384F6018281938118
S113107060E47FE133DA892B09F46DC08091CC01FF
S11310809091CD01819708F46AC0F601848195811D
S113109060EA7FE025DA892B09F465C0C3E0D0E07B
S11310A0812C912C5401612C712C34C0FE01EE0F63
S11310B0FF1FEC0DFD1D8081918168E572E00EDA61
S11310C0892B09F454C07E01FFEFEF1AFF0AEE0CDE
S11310D0FF1CEC0CFD1CF7018081918160E476E03B
S11310E0FFD9892B39F0880C991CAA1CBB1C689465
S11310F080F80CC0F7018081918166E272E0F0D93A
S1131100892BC9F1880C991CAA1CBB1C2296FFEFE1
S11311106F1A7F0A80E16816710444F2CC0FDD1F58
S1131120CC0DDD1D8881998168E572E0D7D9892BC2
S113113031F180E190E0F801918780878482958283
S1131140A682B78288E090E09183808361E070E0BA
S113115080E090E017C060E070E0CB0113C060E075
S113116070E0CB010FC060E070E0CB010BC060E029
S113117070E0CB0107C060E070E0CB0103C060E029
S113118070E0CB01DF91CF911F910F91FF90EF9011
S1131190DF90CF90BF90AF909F908F907F906F9093
S11311A00895E0E0F1E0118282E080831092CD01A5
S11311B01092CC0184B18F7E84B9F8940E944900C6
S11311C00E944700789408958093010108950E9435
S11311D0470083B1807190E09595879595958795A3
S11311E09595879595958795E0E0F1E02281338187
S11311F02F5F3F4F338322832091CC013091CD0167
S11312002436310518F095E0909300019091000187
S11312109330D1F118F4923041F00895943009F4E8
S113122053C0953009F47BC00895813009F07DC026
S113123080910201909103018436910528F4109263
S11312400301109202010895A0E0B1E0ECECF1E09A
S113125011821082808191819C012F5F3F4F3183E5
S1131260208312962D913C911397FC013296EE0F38
S1131270FF1FE050FF4F3183208313961C921E9270
S1131280129783E08C93089581114FC0A0E0B1E0E0
S1131290ECECF1E0808191819C012F5F3F4F318321
S11312A0208312962D913C911397FC013296EE0FF8
S11312B0FF1FE050FF4F3183208313961C921E9230
S11312C0129784E08C9308958130F1F4A0E0B1E0AA
S11312D0ECECF1E0808191819C012F5F3F4F3183E1
S11312E0208312962D913C911397FC013296EE0FB8
S11312F0FF1FE050FF4F3183208313961C921E92F0
S1131300129783E08C9308958091020190910301D8
S11313108536910550F085E0809300010895813071
S113132021F41092030110920201089582E0809347
S113133000011092CD011092CC010895CF93DF9358
S11313402091CC013091CD01FC013587248724E024
S113135031E03387228720910001253009F045C010
S1131360EC01C0D8672B682B692B09F041C0CE0172
S113137091D9672B682B692B09F03DC0CE0150DA57
S1131380672B682B692B09F039C0CE01F6DA672B7D
S1131390682B692BB1F5CE01AADB672B682B692B6F
S11313A099F5CE010E94B401672B682B692B79F55E
S11313B0CE013BDC672B682B692B61F5CE0134DD54
S11313C0672B682B692B49F5CE0109DE672B682B47
S11313D0692B31F5CE010E949B00672B682B692B8A
S11313E011F5A4DF80E090E020C080E090E01DC013
S11313F081E090E01AC081E090E017C081E090E0C5
S113140014C081E090E011C081E090E00EC081E062
S113141090E00BC081E090E008C081E090E005C05E
S113142081E090E002C081E090E0DF91CF910895E7
S1131430CF93DF93CDB7DEB72E970FB6F894DEBF08
S11314400FBECDBF84B1806184B9ABDE80E090E093
S1131450BBDECE01019672DF892BD9F389819A8193
S1131460019721F495B180E1892785B95FDFF1CF38
S11314701F920F920FB60F9211242F933F934F9305
S11314805F936F937F938F939F93AF93BF93EF93E8
S1131490FF939DDEFF91EF91BF91AF919F918F914B
S11314A07F916F915F914F913F912F910F900FBE5C
S11314B00F901F9018955058BB27AA270ED075C1BE
S11314C066D130F06BD120F031F49F3F11F41EF45B
S11314D05BC10EF4E095E7FB51C1E92F77D180F3AE
S11314E0BA17620773078407950718F071F49EF51D
S11314F08FC10EF4E0950B2EBA2FA02D0B01B9016C
S113150090010C01CA01A0011124FF27591B99F075
S1131510593F50F4503E68F11A16F040A22F232F81
S1131520342F4427585FF3CF469537952795A795D1
S1131530F0405395C9F77EF41F16BA0B620B730B78
S1131540840BBAF09150A1F0FF0FBB1F661F771FE9
S1131550881FC2F70EC0BA0F621F731F841F48F49E
S1131560879577956795B795F7959E3F08F0B3CF24
S11315709395880F08F09927EE0F9795879508950E
S1131580D9D008F481E008950CD00FC107D140F000
S1131590FED030F021F45F3F19F0F0C0511139C191
S11315A0F3C014D198F39923C9F35523B1F3951BD0
S11315B0550BBB27AA2762177307840738F09F5F70
S11315C05F4F220F331F441FAA1FA9F333D00E2EDF
S11315D03AF0E0E830D091505040E695001CCAF74C
S11315E029D0FE2F27D0660F771F881FBB1F261711
S11315F037074807AB07B0E809F0BB0B802DBF01E4
S1131600FF2793585F4F2AF09E3F510568F0B6C0FC
S113161000C15F3FECF3983EDCF3869577956795C0
S1131620B795F7959F5FC9F7880F911D9695879594
S113163097F90895E1E0660F771F881FBB1F6217B3
S113164073078407BA0720F0621B730B840BBA0B71
S1131650EE1F88F7E095089504D06894B111D9C0BD
S11316600895BCD088F09F5790F0B92F9927B751AF
S1131670A0F0D1F0660F771F881F991F1AF0BA9552
S1131680C9F712C0B13081F0C3D0B1E00895C0C031
S1131690672F782F8827B85F39F0B93FCCF3869548
S11316A077956795B395D9F73EF4909580957095A5
S11316B061957F4F8F4F9F4F0895E89409C097FB22
S11316C03EF490958095709561957F4F8F4F9F4F15
S11316D09923A9F0F92F96E9BB279395F695879559
S11316E077956795B795F111F8CFFAF4BB0F11F41C
S11316F060FF1BC06F5F7F4F8F4F9F4F16C08823C3
S113170011F096E911C0772321F09EE8872F762FF8
S113171005C0662371F096E8862F70E060E02AF039
S11317209A95660F771F881FDAF7880F9695879525
S113173097F90895990F0008550FAA0BE0E8FEEFFA
S113174016161706E807F907C0F012161306E40781
S1131750F50798F0621B730B840B950B39F40A267A
S113176061F0232B242B252B21F408950A2609F458
S1131770A140A6958FEF811D811D089597F99F675C
S113178080E870E060E008959FEF80EC0895002405
S11317900A941616170618060906089500240A94D2
S11317A012161306140605060895092E0394000C58
S11317B011F4882352F0BB0F40F4BF2B11F460FFE7
S11317C004C06F5F7F4F8F4F9F4F089557FD905810
S11317D0440F551F59F05F3F71F04795880F97FBF1
S11317E0991F61F09F3F79F08795089512161306AB
S11317F01406551FF2CF4695F1DF08C016161706DA
S11318001806991FF1CF869571056105089408950E
S1131810E894BB2766277727CB0197F908950BD067
S1131820C4CFB5DF28F0BADF18F0952309F0A6CFAE
S1131830ABCF1124EECFCADFA0F3959FD1F3950F60
S113184050E0551F629FF001729FBB27F00DB11D40
S1131850639FAA27F00DB11DAA1F649F6627B00DD0
S1131860A11D661F829F2227B00DA11D621F739FB9
S1131870B00DA11D621F839FA00D611D221F749FC7
S11318803327A00D611D231F849F600D211D822F0E
S1131890762F6A2F11249F5750408AF0E1F0882355
S11318A04AF0EE0FFF1FBB1F661F771F881F915062
S11318B05040A9F79E3F510570F060CFAACF5F3F1B
S11318C0ECF3983EDCF3869577956795B795F79595
S11318D0E7959F5FC1F7FE2B880F911D969587951D
S11318E097F90895DB018F939F930BD0BF91AF912C
S11318F0A29F800D911DA39F900DB29F900D112466
S1131900089509D0A59F900DB49F900DA49F800DBC
S1131910911D11240895A29FB001B39FC001A39FFC
S1131920700D811D1124911DB29F700D811D112414
S10B1930911D0895F894FFCF06
S9030000FC
