:1000000033C000004CC000004AC0000048C00000DF
:1000100046C0000044C0000042C0000040C00000D4
:100020003EC000003CC000003AC0000038C00000E4
:1000300036C0000034C0000011C3000030C0000012
:100040002EC000002CC000002AC0000028C0000004
:1000500026C0000024C0000022C0000020C0000014
:100060001EC000001CC0000011241FBECFEFD8E04E
:10007000DEBFCDBF11E0A0E0B1E0E8E1F8E002C0F2
:1000800005900D92A430B107D9F721E0A4E0B1E0CA
:1000900001C01D92AB3DB207E1F79ED2BBC3B0CF0A
:1000A0001092B90088E88093B800089594EA90937C
:1000B000BC009091BC009923E4F79091B900987F1F
:1000C000983011F0903191F48093BB0084E88093D4
:1000D000BC008091BC008823E4F78091B900887F40
:1000E000883131F0803431F480E0089581E0089562
:1000F00080E0089581E0089584E98093BC008091B8
:10010000BC0084FDFCCF08958093BB0084E88093FD
:10011000BC008091BC008823E4F78091B900887FFF
:10012000883211F081E0089580E0089584E880939A
:10013000BC008091BC008823E4F78091BB00089547
:1001400016BC0895FDDF89B1282F221F2227221F08
:10015000E5E0F1E08281938101969383828380912F
:10016000D1019091D2018436910518F085E08093F9
:100170000501809105018330D1F118F4823041F0FE
:100180000895843009F453C0853009F47BC0089584
:10019000213009F07DC080910701909108018436DB
:1001A000910528F410920801109207010895A5E026
:1001B000B1E0E1EDF1E011821082808191819C013A
:1001C0002F5F3F4F3183208312962D913C911397DF
:1001D000FC013296EE0FFF1FEB5FFE4F3183208351
:1001E00013961C921E92129783E08C93089521110E
:1001F0004FC0A5E0B1E0E1EDF1E0808191819C018B
:100200002F5F3F4F3183208312962D913C9113979E
:10021000FC013296EE0FFF1FEB5FFE4F3183208310
:1002200013961C921E92129784E08C9308952130AD
:10023000F1F4A5E0B1E0E1EDF1E0808191819C0174
:100240002F5F3F4F3183208312962D913C9113975E
:10025000FC013296EE0FFF1FEB5FFE4F31832083D0
:1002600013961C921E92129783E08C9308958091AE
:100270000701909108018536910550F085E0809343
:1002800005010895213021F4109208011092070110
:100290000895CF93882331F0809104018160809389
:1002A000040105C0809104018E7F80930401809138
:1002B00004018260809304016091040187E001D20F
:1002C00062E087E044D200C064E087E058D288232F
:1002D00011F0C0E001C0C0E165E087E050D28111BB
:1002E00001C0C06266E087E04AD2811101C0C064EB
:1002F00067E087E044D2811101C0C06862E087E016
:1003000029D200C062E087E022D200C064E087E02A
:1003100036D2811101C0C16065E087E030D2811121
:1003200001C0C26066E087E02AD2811101C0C460CA
:1003300067E087E024D2811101C0C86062E087E0F5
:1003400009D28C2FCF91089580E0A3DF8823E4F3B6
:1003500084E090E00197F1F780E09BCF089562E0A0
:1003600087E0F5D100C062E087E0F4C10895CF9343
:10037000C82F662331F080910401816080930401CD
:1003800005C0809104018E7F809304018091040157
:100390008D7F809304016091040187E092D1809168
:1003A00004018F7780930401809104018F7B8093F7
:1003B0000401809104018F7D8093040180910401E8
:1003C0008F7E80930401CC232CF4809104018068FB
:1003D00080930401C6FF05C080910401806480936E
:1003E0000401C5FF05C0809104018062809304016F
:1003F000C4FF05C080910401806180930401609175
:10040000040187E05ED1ABDF809104018F77809398
:100410000401809104018F7B809304018091040189
:100420008F7D80930401809104018F7E809304016D
:10043000C3FF05C080910401806880930401C2FF5E
:1004400005C080910401806480930401C1FF05C050
:1004500080910401806280930401C0FF05C08091F7
:1004600004018061809304016091040187E029D137
:1004700076DF809104018061809304018091040102
:100480008062809304018091040180648093040160
:10049000809104018068809304016091040187E0E9
:1004A00010D1CF910895CF93C82F4EDF60E08C2FED
:1004B0005EDFCF910895611103C08058F4CF089595
:1004C0008054F1CF089581E0EECF0895882331F074
:1004D00080910401877F8093040105C0809104010D
:1004E0008860809304016091040187E0EAC0089568
:1004F00082E0D9CF0895CF93C82F26DFCA3041F4C8
:10050000803410F480E401C080E08058CCDF0FC05C
:10051000803121F460E080EC2ADF05C0803519F4D9
:1005200060E080E824DF10DF61E08C2F20DFCF91D6
:100530000895CF93DF93FC0102C0DDDFFE01EF01E0
:10054000219680818111F9CFDF91CF9108951F937A
:10055000CF93DF93182FA5D010920401609104016E
:1005600087E0AFD080E09DE70197F1F7809104012B
:100570008062809304018091040180618093040172
:100580006091040187E09DD0EADE80E097E2019768
:10059000F1F7E5DEC0E8D0E0CE010197F1F7DFDE4C
:1005A000CE010197F1F7809104018F7E80930401C1
:1005B0006091040187E085D0D2DE2197F1F788E2CF
:1005C00072DF88E070DF7FDF86E06DDF812F6BDF19
:1005D000DF91CF911F910895CF93DF93CDB7DEB711
:1005E0002A970FB6F894DEBF0FBECDBF8AB18064E4
:1005F0008AB98DE0ACDF7CDF80E068DF00E010E0EE
:10060000E12CF12C26C04AE0BE016F5F7F4FC7018D
:10061000CED0602F81E04FDF80E091E08ADF4AE0BA
:10062000BE016F5F7F4FC701C2D0602F84E043DF00
:10063000CE0101967EDFC8010196817090789923E2
:1006400024F401978E6F9F6F01968C018FEFE81A4B
:10065000F80A8AE0E816F104B4F2D0CF1F920F92A4
:100660000FB60F9211242F933F934F935F936F9385
:100670007F938F939F93AF93BF93EF93FF9362DD2D
:10068000FF91EF91BF91AF919F918F917F916F916A
:100690005F914F913F912F910F900FBE0F901F9040
:1006A0001895FEDC83E08A95F1F7000080E006C033
:1006B000E82FF0E0ED52FE4F10828F5F8830C0F3DC
:1006C0000895CF93883070F4C62FE82FF0E0ED52F4
:1006D000FE4F6083805E880FE9DC8C2F15DD0CDD1A
:1006E00080E001C08FEFCF910895CF93DF938830E2
:1006F00040F5683040F5282F30E0F901ED52FE4F0B
:100700009081442349F0C1E0D0E002C0CC0FDD1F4E
:100710006A95E2F7C92B09C0C1E0D0E002C0CC0F56
:10072000DD1F6A95E2F7C095C923F901ED52FE4F2E
:10073000C083805E880FBADC8C2FE6DCDDDC80E0D5
:1007400003C08FEF01C08FEFDF91CF91089541E09B
:10075000CCCF089540E0C9CF0895CF93883058F4A6
:1007600090E08096880F991F8160A0DCDFDCC82FA5
:10077000C095C2DC01C0CFEF8C2FCF910895CF93ED
:10078000883080F4683080F4C62FE7DF8F3F69F04F
:10079000082E000C990B02C095958795CA95E2F733
:1007A000817003C08FEF01C08FEFCF910895BB27F9
:1007B0004A3031F4992322F4BDE2909581959F4F00
:1007C00001C0BB27FB015527AA27880F991FAA1F25
:1007D000A41710F0A41B83955051B9F7A05DAA335C
:1007E00008F0A95DA193009779F7B111B193119227
:1007F000CB0100C0DC01FC01672F71917723E1F789
:10080000329704C07C916D9370836291AE17BF07DD
:08081000C8F30895F894FFCF2E
:04081800693D200016
:00000001FF
